{
  "contractName": "EventCreator",
  "abi": [
    {
      "anonymous": false,
      "inputs": [
        {
          "indexed": false,
          "internalType": "address",
          "name": "_creator",
          "type": "address"
        },
        {
          "indexed": false,
          "internalType": "address",
          "name": "_event",
          "type": "address"
        }
      ],
      "name": "CreateEvent",
      "type": "event"
    },
    {
      "inputs": [
        {
          "internalType": "uint256",
          "name": "",
          "type": "uint256"
        }
      ],
      "name": "events",
      "outputs": [
        {
          "internalType": "contract Event",
          "name": "",
          "type": "address"
        }
      ],
      "stateMutability": "view",
      "type": "function",
      "constant": true
    },
    {
      "inputs": [
        {
          "internalType": "uint256",
          "name": "_numTickets",
          "type": "uint256"
        },
        {
          "internalType": "uint128",
          "name": "_price",
          "type": "uint128"
        },
        {
          "internalType": "bool",
          "name": "_canBeResold",
          "type": "bool"
        },
        {
          "internalType": "uint128",
          "name": "_royaltyPercent",
          "type": "uint128"
        },
        {
          "internalType": "string",
          "name": "_eventName",
          "type": "string"
        },
        {
          "internalType": "string",
          "name": "_eventSymbol",
          "type": "string"
        }
      ],
      "name": "createEvent",
      "outputs": [
        {
          "internalType": "address",
          "name": "newEvent",
          "type": "address"
        }
      ],
      "stateMutability": "nonpayable",
      "type": "function"
    },
    {
      "inputs": [],
      "name": "getEventCount",
      "outputs": [
        {
          "internalType": "uint256",
          "name": "contractCount",
          "type": "uint256"
        }
      ],
      "stateMutability": "view",
      "type": "function",
      "constant": true
    },
    {
      "inputs": [],
      "name": "getEvents",
      "outputs": [
        {
          "internalType": "contract Event[]",
          "name": "_events",
          "type": "address[]"
        }
      ],
      "stateMutability": "view",
      "type": "function",
      "constant": true
    }
  ],
  "bytecode": "0x6080604052348015600f57600080fd5b50616d448061001f6000396000f3fe608060405234801561001057600080fd5b5060043610610069576000357c0100000000000000000000000000000000000000000000000000000000900480630b7914301461006e578063164a13551461009e578063404aa8f9146100ce578063d9e48f5c146100ec575b600080fd5b610088600480360381019061008391906103a0565b61010a565b604051610095919061044c565b60405180910390f35b6100b860048036038101906100b3919061062d565b610149565b6040516100c59190610713565b60405180910390f35b6100d661023e565b6040516100e391906107ec565b60405180910390f35b6100f461033d565b604051610101919061081d565b60405180910390f35b6000818154811061011a57600080fd5b906000526020600020016000915054906101000a900473ffffffffffffffffffffffffffffffffffffffff1681565b6000803388888888888860405161015f90610349565b61016f97969594939291906108d5565b604051809103906000f08015801561018b573d6000803e3d6000fd5b5090506000819080600181540180825580915050600190039060005260206000200160009091909190916101000a81548173ffffffffffffffffffffffffffffffffffffffff021916908373ffffffffffffffffffffffffffffffffffffffff16021790555060008190507f64f31017a670226c80c75659d4bb64bf5bb7f8490fef658f1be89d99583fe3043382604051610227929190610952565b60405180910390a180925050509695505050505050565b606060008054905067ffffffffffffffff81111561025f5761025e610502565b5b60405190808252806020026020018201604052801561028d5781602001602082028036833780820191505090505b50905060005b60008054905081101561033957600081815481106102b4576102b361097b565b5b9060005260206000200160009054906101000a900473ffffffffffffffffffffffffffffffffffffffff168282815181106102f2576102f161097b565b5b602002602001019073ffffffffffffffffffffffffffffffffffffffff16908173ffffffffffffffffffffffffffffffffffffffff16815250508080600101915050610293565b5090565b60008080549050905090565b616364806109ab83390190565b6000604051905090565b600080fd5b600080fd5b6000819050919050565b61037d8161036a565b811461038857600080fd5b50565b60008135905061039a81610374565b92915050565b6000602082840312156103b6576103b5610360565b5b60006103c48482850161038b565b91505092915050565b600073ffffffffffffffffffffffffffffffffffffffff82169050919050565b6000819050919050565b600061041261040d610408846103cd565b6103ed565b6103cd565b9050919050565b6000610424826103f7565b9050919050565b600061043682610419565b9050919050565b6104468161042b565b82525050565b6000602082019050610461600083018461043d565b92915050565b60006fffffffffffffffffffffffffffffffff82169050919050565b61048c81610467565b811461049757600080fd5b50565b6000813590506104a981610483565b92915050565b60008115159050919050565b6104c4816104af565b81146104cf57600080fd5b50565b6000813590506104e1816104bb565b92915050565b600080fd5b600080fd5b6000601f19601f8301169050919050565b7f4e487b7100000000000000000000000000000000000000000000000000000000600052604160045260246000fd5b61053a826104f1565b810181811067ffffffffffffffff8211171561055957610558610502565b5b80604052505050565b600061056c610356565b90506105788282610531565b919050565b600067ffffffffffffffff82111561059857610597610502565b5b6105a1826104f1565b9050602081019050919050565b82818337600083830152505050565b60006105d06105cb8461057d565b610562565b9050828152602081018484840111156105ec576105eb6104ec565b5b6105f78482856105ae565b509392505050565b600082601f830112610614576106136104e7565b5b81356106248482602086016105bd565b91505092915050565b60008060008060008060c0878903121561064a57610649610360565b5b600061065889828a0161038b565b965050602061066989828a0161049a565b955050604061067a89828a016104d2565b945050606061068b89828a0161049a565b935050608087013567ffffffffffffffff8111156106ac576106ab610365565b5b6106b889828a016105ff565b92505060a087013567ffffffffffffffff8111156106d9576106d8610365565b5b6106e589828a016105ff565b9150509295509295509295565b60006106fd826103cd565b9050919050565b61070d816106f2565b82525050565b60006020820190506107286000830184610704565b92915050565b600081519050919050565b600082825260208201905092915050565b6000819050602082019050919050565b6107638161042b565b82525050565b6000610775838361075a565b60208301905092915050565b6000602082019050919050565b60006107998261072e565b6107a38185610739565b93506107ae8361074a565b8060005b838110156107df5781516107c68882610769565b97506107d183610781565b9250506001810190506107b2565b5085935050505092915050565b60006020820190508181036000830152610806818461078e565b905092915050565b6108178161036a565b82525050565b6000602082019050610832600083018461080e565b92915050565b61084181610467565b82525050565b610850816104af565b82525050565b600081519050919050565b600082825260208201905092915050565b60005b83811015610890578082015181840152602081019050610875565b60008484015250505050565b60006108a782610856565b6108b18185610861565b93506108c1818560208601610872565b6108ca816104f1565b840191505092915050565b600060e0820190506108ea600083018a610704565b6108f7602083018961080e565b6109046040830188610838565b6109116060830187610847565b61091e6080830186610838565b81810360a0830152610930818561089c565b905081810360c0830152610944818461089c565b905098975050505050505050565b60006040820190506109676000830185610704565b6109746020830184610704565b9392505050565b7f4e487b7100000000000000000000000000000000000000000000000000000000600052603260045260246000fdfe608060405234801561001057600080fd5b5060405161636438038061636483398181016040528101906100329190610536565b81818160009081610043919061082d565b508060019081610053919061082d565b5050506000836fffffffffffffffffffffffffffffffff161015801561008c57506064836fffffffffffffffffffffffffffffffff1611155b6100cb576040517f08c379a00000000000000000000000000000000000000000000000000000000081526004016100c290610982565b60405180910390fd5b6000861161010e576040517f08c379a000000000000000000000000000000000000000000000000000000000815260040161010590610a14565b60405180910390fd5b60008290506000829050600082510361015c576040517f08c379a000000000000000000000000000000000000000000000000000000000815260040161015390610a80565b60405180910390fd5b60008151036101a0576040517f08c379a000000000000000000000000000000000000000000000000000000000815260040161019790610aec565b60405180910390fd5b88600a60026101000a81548173ffffffffffffffffffffffffffffffffffffffff021916908373ffffffffffffffffffffffffffffffffffffffff1602179055508760098190555086600860006101000a8154816fffffffffffffffffffffffffffffffff02191690836fffffffffffffffffffffffffffffffff16021790555085600a60006101000a81548160ff02191690831515021790555084600860106101000a8154816fffffffffffffffffffffffffffffffff02191690836fffffffffffffffffffffffffffffffff1602179055506000600660006101000a81548160ff0219169083600581111561029a57610299610b0c565b5b0217905550505050505050505050610b3b565b6000604051905090565b600080fd5b600080fd5b600073ffffffffffffffffffffffffffffffffffffffff82169050919050565b60006102ec826102c1565b9050919050565b6102fc816102e1565b811461030757600080fd5b50565b600081519050610319816102f3565b92915050565b6000819050919050565b6103328161031f565b811461033d57600080fd5b50565b60008151905061034f81610329565b92915050565b60006fffffffffffffffffffffffffffffffff82169050919050565b61037a81610355565b811461038557600080fd5b50565b60008151905061039781610371565b92915050565b60008115159050919050565b6103b28161039d565b81146103bd57600080fd5b50565b6000815190506103cf816103a9565b92915050565b600080fd5b600080fd5b6000601f19601f8301169050919050565b7f4e487b7100000000000000000000000000000000000000000000000000000000600052604160045260246000fd5b610428826103df565b810181811067ffffffffffffffff82111715610447576104466103f0565b5b80604052505050565b600061045a6102ad565b9050610466828261041f565b919050565b600067ffffffffffffffff821115610486576104856103f0565b5b61048f826103df565b9050602081019050919050565b60005b838110156104ba57808201518184015260208101905061049f565b60008484015250505050565b60006104d96104d48461046b565b610450565b9050828152602081018484840111156104f5576104f46103da565b5b61050084828561049c565b509392505050565b600082601f83011261051d5761051c6103d5565b5b815161052d8482602086016104c6565b91505092915050565b600080600080600080600060e0888a031215610555576105546102b7565b5b60006105638a828b0161030a565b97505060206105748a828b01610340565b96505060406105858a828b01610388565b95505060606105968a828b016103c0565b94505060806105a78a828b01610388565b93505060a088015167ffffffffffffffff8111156105c8576105c76102bc565b5b6105d48a828b01610508565b92505060c088015167ffffffffffffffff8111156105f5576105f46102bc565b5b6106018a828b01610508565b91505092959891949750929550565b600081519050919050565b7f4e487b7100000000000000000000000000000000000000000000000000000000600052602260045260246000fd5b6000600282049050600182168061066257607f821691505b6020821081036106755761067461061b565b5b50919050565b60008190508160005260206000209050919050565b60006020601f8301049050919050565b60008160020a8302905092915050565b6000600883026106e07fffffffffffffffffffffffffffffffffffffffffffffffffffffffffffffffff826106a0565b6106ea86836106a0565b95508019841693508086168417925050509392505050565b6000819050919050565b600061072761072261071d8461031f565b610702565b61031f565b9050919050565b6000819050919050565b6107418361070c565b61075561074d8261072e565b8484546106b0565b825550505050565b600090565b61076a61075d565b610775818484610738565b505050565b5b818110156107995761078e600082610762565b60018101905061077b565b5050565b601f8211156107de576107af8161067b565b6107b884610690565b810160208510156107c7578190505b6107db6107d385610690565b83018261077a565b50505b505050565b60008160020a8304905092915050565b6000610804600019846008026107e3565b1980831691505092915050565b600061081d83836107f3565b9150826002028217905092915050565b61083682610610565b67ffffffffffffffff81111561084f5761084e6103f0565b5b610859825461064a565b61086482828561079d565b600060209050601f8311600181146108975760008415610885578287015190505b61088f8582610811565b8655506108f7565b601f1984166108a58661067b565b60005b828110156108cd578489015182556001820191506020850194506020810190506108a8565b868310156108ea57848901516108e6601f8916826107f3565b8355505b6001600288020188555050505b505050505050565b600082825260208201905092915050565b7f526f79616c74792050657263656e74616765206d75737420626520626574776560008201527f656e203020616e64203130300000000000000000000000000000000000000000602082015250565b600061096c602c836108ff565b915061097782610910565b604082019050919050565b6000602082019050818103600083015261099b8161095f565b9050919050565b7f546865206e756d626572206f66207469636b657473206d75737420626520677260008201527f6561746572207468616e20300000000000000000000000000000000000000000602082015250565b60006109fe602c836108ff565b9150610a09826109a2565b604082019050919050565b60006020820190508181036000830152610a2d816109f1565b9050919050565b7f4576656e74204e616d652063616e6e6f7420626520656d707479000000000000600082015250565b6000610a6a601a836108ff565b9150610a7582610a34565b602082019050919050565b60006020820190508181036000830152610a9981610a5d565b9050919050565b7f4576656e742053796d626f6c2063616e6e6f7420626520656d70747900000000600082015250565b6000610ad6601c836108ff565b9150610ae182610aa0565b602082019050919050565b60006020820190508181036000830152610b0581610ac9565b9050919050565b7f4e487b7100000000000000000000000000000000000000000000000000000000600052602160045260246000fd5b61581a80610b4a6000396000f3fe60806040526004361061022c576000357c01000000000000000000000000000000000000000000000000000000009004806393bbd9df11610135578063b3874c0d116100bd578063ce3cd9971161008c578063ce3cd997146107fd578063da24df5f1461083a578063e985e9c514610877578063edca914c146108b4578063fb87774c146108d25761022c565b8063b3874c0d14610741578063b88d4fde1461076c578063c040e6b814610795578063c87b56dd146107c05761022c565b80639aecd64a116101045780639aecd64a1461066e5780639f67756d14610697578063a035b1fe146106c2578063a22cb465146106ed578063a51bba8c146107165761022c565b806393bbd9df146105b057806394d51fc0146105db57806395d89b411461061857806395ee1221146106435761022c565b80633ccfd60b116101b857806350b447121161018757806350b44712146104a35780636352211e146104e257806370a082311461051f578063830473741461055c5780638da5cb5b146105855761022c565b80633ccfd60b1461040f57806342842e0e146104265780634311de8f1461044f5780634680a424146104665761022c565b8063095ea7b3116101ff578063095ea7b31461031357806318b3822f1461033c57806323b872dd1461037957806327e235e3146103a25780632f31707c146103df5761022c565b806301ffc9a71461023157806302216d331461026e57806306fdde03146102ab578063081812fc146102d6575b600080fd5b34801561023d57600080fd5b5061025860048036038101906102539190613bfc565b61090f565b6040516102659190613c44565b60405180910390f35b34801561027a57600080fd5b5061029560048036038101906102909190613c95565b6109f1565b6040516102a29190613d03565b60405180910390f35b3480156102b757600080fd5b506102c0610a2e565b6040516102cd9190613dae565b60405180910390f35b3480156102e257600080fd5b506102fd60048036038101906102f89190613c95565b610ac0565b60405161030a9190613d03565b60405180910390f35b34801561031f57600080fd5b5061033a60048036038101906103359190613dfc565b610b06565b005b34801561034857600080fd5b50610363600480360381019061035e9190613f71565b610c1d565b6040516103709190613dae565b60405180910390f35b34801561038557600080fd5b506103a0600480360381019061039b9190613fcd565b610e4c565b005b3480156103ae57600080fd5b506103c960048036038101906103c49190614020565b610eac565b6040516103d6919061405c565b60405180910390f35b6103f960048036038101906103f49190613c95565b610ec4565b6040516104069190613c44565b60405180910390f35b34801561041b57600080fd5b506104246112f4565b005b34801561043257600080fd5b5061044d60048036038101906104489190613fcd565b61165a565b005b34801561045b57600080fd5b5061046461167a565b005b34801561047257600080fd5b5061048d60048036038101906104889190614020565b61197b565b60405161049a9190613c44565b60405180910390f35b3480156104af57600080fd5b506104ca60048036038101906104c59190613c95565b61199b565b6040516104d993929190614119565b60405180910390f35b3480156104ee57600080fd5b5061050960048036038101906105049190613c95565b611a1a565b6040516105169190613d03565b60405180910390f35b34801561052b57600080fd5b5061054660048036038101906105419190614020565b611aa0565b604051610553919061405c565b60405180910390f35b34801561056857600080fd5b50610583600480360381019061057e9190613c95565b611b57565b005b34801561059157600080fd5b5061059a611cc5565b6040516105a79190614171565b60405180910390f35b3480156105bc57600080fd5b506105c5611ceb565b6040516105d2919061429b565b60405180910390f35b3480156105e757600080fd5b5061060260048036038101906105fd9190613c95565b611e19565b60405161060f9190613d03565b60405180910390f35b34801561062457600080fd5b5061062d611e4c565b60405161063a9190613dae565b60405180910390f35b34801561064f57600080fd5b50610658611ede565b6040516106659190613c44565b60405180910390f35b34801561067a57600080fd5b5061069560048036038101906106909190613dfc565b611ef1565b005b3480156106a357600080fd5b506106ac611ff8565b6040516106b991906142bd565b60405180910390f35b3480156106ce57600080fd5b506106d761201a565b6040516106e491906142bd565b60405180910390f35b3480156106f957600080fd5b50610714600480360381019061070f9190614304565b61203c565b005b34801561072257600080fd5b5061072b612052565b604051610738919061405c565b60405180910390f35b34801561074d57600080fd5b50610756612058565b6040516107639190613c44565b60405180910390f35b34801561077857600080fd5b50610793600480360381019061078e91906143e5565b61206b565b005b3480156107a157600080fd5b506107aa6120cd565b6040516107b791906144b0565b60405180910390f35b3480156107cc57600080fd5b506107e760048036038101906107e29190613c95565b6120e0565b6040516107f49190613dae565b60405180910390f35b34801561080957600080fd5b50610824600480360381019061081f91906144f0565b612148565b60405161083191906144b0565b60405180910390f35b34801561084657600080fd5b50610861600480360381019061085c9190614549565b61232a565b60405161086e9190613c44565b60405180910390f35b34801561088357600080fd5b5061089e60048036038101906108999190614589565b6125f8565b6040516108ab9190613c44565b60405180910390f35b6108bc61268c565b6040516108c9919061405c565b60405180910390f35b3480156108de57600080fd5b506108f960048036038101906108f49190613c95565b612ba9565b60405161090691906145c9565b60405180910390f35b60007f80ac58cd000000000000000000000000000000000000000000000000000000007bffffffffffffffffffffffffffffffffffffffffffffffffffffffff1916827bffffffffffffffffffffffffffffffffffffffffffffffffffffffff191614806109da57507f5b5e139f000000000000000000000000000000000000000000000000000000007bffffffffffffffffffffffffffffffffffffffffffffffffffffffff1916827bffffffffffffffffffffffffffffffffffffffffffffffffffffffff1916145b806109ea57506109e982612be5565b5b9050919050565b6000600d600083815260200190815260200160002060009054906101000a900473ffffffffffffffffffffffffffffffffffffffff169050919050565b606060008054610a3d90614613565b80601f0160208091040260200160405190810160405280929190818152602001828054610a6990614613565b8015610ab65780601f10610a8b57610100808354040283529160200191610ab6565b820191906000526020600020905b815481529060010190602001808311610a9957829003601f168201915b5050505050905090565b6000610acb82612c4f565b6004600083815260200190815260200160002060009054906101000a900473ffffffffffffffffffffffffffffffffffffffff169050919050565b6000610b1182611a1a565b90508073ffffffffffffffffffffffffffffffffffffffff168373ffffffffffffffffffffffffffffffffffffffff1603610b81576040517f08c379a0000000000000000000000000000000000000000000000000000000008152600401610b78906146b6565b60405180910390fd5b8073ffffffffffffffffffffffffffffffffffffffff16610ba0612c9a565b73ffffffffffffffffffffffffffffffffffffffff161480610bcf5750610bce81610bc9612c9a565b6125f8565b5b610c0e576040517f08c379a0000000000000000000000000000000000000000000000000000000008152600401610c0590614748565b60405180910390fd5b610c188383612ca2565b505050565b60606003806005811115610c3457610c336140a2565b5b600660009054906101000a900460ff166005811115610c5657610c556140a2565b5b14610c96576040517f08c379a0000000000000000000000000000000000000000000000000000000008152600401610c8d906147da565b60405180910390fd5b833373ffffffffffffffffffffffffffffffffffffffff16610cb782611a1a565b73ffffffffffffffffffffffffffffffffffffffff1614610d0d576040517f08c379a0000000000000000000000000000000000000000000000000000000008152600401610d0490614846565b60405180910390fd5b60006002811115610d2157610d206140a2565b5b60078681548110610d3557610d34614866565b5b906000526020600020906002020160010160009054906101000a900460ff166002811115610d6657610d656140a2565b5b14610da6576040517f08c379a0000000000000000000000000000000000000000000000000000000008152600401610d9d90614907565b60405180910390fd5b600160078681548110610dbc57610dbb614866565b5b906000526020600020906002020160010160006101000a81548160ff02191690836002811115610def57610dee6140a2565b5b0217905550610dfd85612d5b565b7fad735fea640d2273c159ca0571101d62d2fa19a0d10e2cd97fcc2c2f30410df13086610e28610a2e565b87604051610e399493929190614927565b60405180910390a1839250505092915050565b610e5d610e57612c9a565b82612ea9565b610e9c576040517f08c379a0000000000000000000000000000000000000000000000000000000008152600401610e93906149ec565b60405180910390fd5b610ea7838383612f3e565b505050565b600b6020528060005260406000206000915090505481565b60006001806005811115610edb57610eda6140a2565b5b600660009054906101000a900460ff166005811115610efd57610efc6140a2565b5b14610f3d576040517f08c379a0000000000000000000000000000000000000000000000000000000008152600401610f34906147da565b60405180910390fd5b34600860009054906101000a90046fffffffffffffffffffffffffffffffff166fffffffffffffffffffffffffffffffff16811015610fb1576040517f08c379a0000000000000000000000000000000000000000000000000000000008152600401610fa890614a7e565b60405180910390fd5b600280811115610fc457610fc36140a2565b5b60078581548110610fd857610fd7614866565b5b906000526020600020906002020160010160009054906101000a900460ff166002811115611009576110086140a2565b5b14611049576040517f08c379a000000000000000000000000000000000000000000000000000000000815260040161104090614aea565b60405180910390fd5b60006007858154811061105f5761105e614866565b5b906000526020600020906002020160000160109054906101000a90046fffffffffffffffffffffffffffffffff166fffffffffffffffffffffffffffffffff1690508034111561111157600081346110b79190614b39565b905080600b60003373ffffffffffffffffffffffffffffffffffffffff1673ffffffffffffffffffffffffffffffffffffffff16815260200190815260200160002060008282546111089190614b6d565b92505081905550505b6000606482600860109054906101000a90046fffffffffffffffffffffffffffffffff166fffffffffffffffffffffffffffffffff166111519190614ba1565b61115b9190614c12565b90506000818361116b9190614b39565b9050600061117888611a1a565b905081600b60008373ffffffffffffffffffffffffffffffffffffffff1673ffffffffffffffffffffffffffffffffffffffff16815260200190815260200160002060008282546111c99190614b6d565b9250508190555082600b6000600a60029054906101000a900473ffffffffffffffffffffffffffffffffffffffff1673ffffffffffffffffffffffffffffffffffffffff1673ffffffffffffffffffffffffffffffffffffffff16815260200190815260200160002060008282546112419190614b6d565b925050819055507ff43c2b94d59192e43ff5461a2ec018bcf2178e26af43252b9bb00e937ab5c84330611272610a2e565b338b6040516112849493929190614c43565b60405180910390a161129781338a61165a565b6000600789815481106112ad576112ac614866565b5b906000526020600020906002020160010160006101000a81548160ff021916908360028111156112e0576112df6140a2565b5b021790555060019650505050505050919050565b600a60029054906101000a900473ffffffffffffffffffffffffffffffffffffffff1673ffffffffffffffffffffffffffffffffffffffff163373ffffffffffffffffffffffffffffffffffffffff1603611384576040517f08c379a000000000000000000000000000000000000000000000000000000000815260040161137b90614cdb565b60405180910390fd5b6000600b60003373ffffffffffffffffffffffffffffffffffffffff1673ffffffffffffffffffffffffffffffffffffffff168152602001908152602001600020549050600a60019054906101000a900460ff168015611434575060001515600c60003373ffffffffffffffffffffffffffffffffffffffff1673ffffffffffffffffffffffffffffffffffffffff16815260200190815260200160002060009054906101000a900460ff161515145b1561148b57600860009054906101000a90046fffffffffffffffffffffffffffffffff166fffffffffffffffffffffffffffffffff1661147333611aa0565b61147d9190614ba1565b816114889190614b6d565b90505b600081116114ce576040517f08c379a00000000000000000000000000000000000000000000000000000000081526004016114c590614d6d565b60405180910390fd5b6000600b60003373ffffffffffffffffffffffffffffffffffffffff1673ffffffffffffffffffffffffffffffffffffffff168152602001908152602001600020819055506001600c60003373ffffffffffffffffffffffffffffffffffffffff1673ffffffffffffffffffffffffffffffffffffffff16815260200190815260200160002060006101000a81548160ff021916908315150217905550600033905060008173ffffffffffffffffffffffffffffffffffffffff168360405161159690614dbe565b60006040518083038185875af1925050503d80600081146115d3576040519150601f19603f3d011682016040523d82523d6000602084013e6115d8565b606091505b505090508061161c576040517f08c379a000000000000000000000000000000000000000000000000000000000815260040161161390614e1f565b60405180910390fd5b7f9fe2db218b58c00ab3556f2be44b2769b37978368c63313d82d78306568e4776338460405161164d929190614e3f565b60405180910390a1505050565b6116758383836040518060200160405280600081525061206b565b505050565b600a60029054906101000a900473ffffffffffffffffffffffffffffffffffffffff1673ffffffffffffffffffffffffffffffffffffffff163373ffffffffffffffffffffffffffffffffffffffff161461170a576040517f08c379a000000000000000000000000000000000000000000000000000000000815260040161170190614eda565b60405180910390fd5b600580600581111561171f5761171e6140a2565b5b600660009054906101000a900460ff166005811115611741576117406140a2565b5b14611781576040517f08c379a0000000000000000000000000000000000000000000000000000000008152600401611778906147da565b60405180910390fd5b6000600b6000600a60029054906101000a900473ffffffffffffffffffffffffffffffffffffffff1673ffffffffffffffffffffffffffffffffffffffff1673ffffffffffffffffffffffffffffffffffffffff1681526020019081526020016000205490506000811161182a576040517f08c379a000000000000000000000000000000000000000000000000000000000815260040161182190614f46565b60405180910390fd5b6000600b6000600a60029054906101000a900473ffffffffffffffffffffffffffffffffffffffff1673ffffffffffffffffffffffffffffffffffffffff1673ffffffffffffffffffffffffffffffffffffffff1681526020019081526020016000208190555060003373ffffffffffffffffffffffffffffffffffffffff16826040516118b790614dbe565b60006040518083038185875af1925050503d80600081146118f4576040519150601f19603f3d011682016040523d82523d6000602084013e6118f9565b606091505b505090508061193d576040517f08c379a000000000000000000000000000000000000000000000000000000000815260040161193490614fb2565b60405180910390fd5b7f5f0d69e5c0056ecc650fc0d2d916359037135dac3d5b5446d226dfdbe292482e338360405161196e929190614e3f565b60405180910390a1505050565b600c6020528060005260406000206000915054906101000a900460ff1681565b600781815481106119ab57600080fd5b90600052602060002090600202016000915090508060000160009054906101000a90046fffffffffffffffffffffffffffffffff16908060000160109054906101000a90046fffffffffffffffffffffffffffffffff16908060010160009054906101000a900460ff16905083565b600080611a2683613237565b9050600073ffffffffffffffffffffffffffffffffffffffff168173ffffffffffffffffffffffffffffffffffffffff1603611a97576040517f08c379a0000000000000000000000000000000000000000000000000000000008152600401611a8e9061501e565b60405180910390fd5b80915050919050565b60008073ffffffffffffffffffffffffffffffffffffffff168273ffffffffffffffffffffffffffffffffffffffff1603611b10576040517f08c379a0000000000000000000000000000000000000000000000000000000008152600401611b07906150b0565b60405180910390fd5b600360008373ffffffffffffffffffffffffffffffffffffffff1673ffffffffffffffffffffffffffffffffffffffff168152602001908152602001600020549050919050565b6001806005811115611b6c57611b6b6140a2565b5b600660009054906101000a900460ff166005811115611b8e57611b8d6140a2565b5b14611bce576040517f08c379a0000000000000000000000000000000000000000000000000000000008152600401611bc5906147da565b60405180910390fd5b3373ffffffffffffffffffffffffffffffffffffffff16600d600084815260200190815260200160002060009054906101000a900473ffffffffffffffffffffffffffffffffffffffff1673ffffffffffffffffffffffffffffffffffffffff1603611c6f576040517f08c379a0000000000000000000000000000000000000000000000000000000008152600401611c6690615142565b60405180910390fd5b33600d600084815260200190815260200160002060006101000a81548173ffffffffffffffffffffffffffffffffffffffff021916908373ffffffffffffffffffffffffffffffffffffffff1602179055505050565b600a60029054906101000a900473ffffffffffffffffffffffffffffffffffffffff1681565b60606007805480602002602001604051908101604052809291908181526020016000905b82821015611e1057838290600052602060002090600202016040518060600160405290816000820160009054906101000a90046fffffffffffffffffffffffffffffffff166fffffffffffffffffffffffffffffffff166fffffffffffffffffffffffffffffffff1681526020016000820160109054906101000a90046fffffffffffffffffffffffffffffffff166fffffffffffffffffffffffffffffffff166fffffffffffffffffffffffffffffffff1681526020016001820160009054906101000a900460ff166002811115611deb57611dea6140a2565b5b6002811115611dfd57611dfc6140a2565b5b8152505081526020019060010190611d0f565b50505050905090565b600d6020528060005260406000206000915054906101000a900473ffffffffffffffffffffffffffffffffffffffff1681565b606060018054611e5b90614613565b80601f0160208091040260200160405190810160405280929190818152602001828054611e8790614613565b8015611ed45780601f10611ea957610100808354040283529160200191611ed4565b820191906000526020600020905b815481529060010190602001808311611eb757829003601f168201915b5050505050905090565b600a60019054906101000a900460ff1681565b6001806005811115611f0657611f056140a2565b5b600660009054906101000a900460ff166005811115611f2857611f276140a2565b5b14611f68576040517f08c379a0000000000000000000000000000000000000000000000000000000008152600401611f5f906147da565b60405180910390fd5b3373ffffffffffffffffffffffffffffffffffffffff16611f8883611a1a565b73ffffffffffffffffffffffffffffffffffffffff1614611fde576040517f08c379a0000000000000000000000000000000000000000000000000000000008152600401611fd5906151ae565b60405180910390fd5b611fe983600161203c565b611ff38383610b06565b505050565b600860109054906101000a90046fffffffffffffffffffffffffffffffff1681565b600860009054906101000a90046fffffffffffffffffffffffffffffffff1681565b61204e612047612c9a565b8383613274565b5050565b60095481565b600a60009054906101000a900460ff1681565b61207c612076612c9a565b83612ea9565b6120bb576040517f08c379a00000000000000000000000000000000000000000000000000000000081526004016120b2906149ec565b60405180910390fd5b6120c7848484846133e0565b50505050565b600660009054906101000a900460ff1681565b60606120eb82612c4f565b60006120f561343c565b905060008151116121155760405180602001604052806000815250612140565b8061211f84613453565b60405160200161213092919061520a565b6040516020818303038152906040525b915050919050565b6000600a60029054906101000a900473ffffffffffffffffffffffffffffffffffffffff1673ffffffffffffffffffffffffffffffffffffffff163373ffffffffffffffffffffffffffffffffffffffff16146121da576040517f08c379a00000000000000000000000000000000000000000000000000000000081526004016121d190614eda565b60405180910390fd5b81600660006101000a81548160ff021916908360058111156121ff576121fe6140a2565b5b021790555060046005811115612218576122176140a2565b5b600660009054906101000a900460ff16600581111561223a576122396140a2565b5b03612313576001600a60016101000a81548160ff021916908315150217905550600780549050600860009054906101000a90046fffffffffffffffffffffffffffffffff166fffffffffffffffffffffffffffffffff1661229b9190614ba1565b600b6000600a60029054906101000a900473ffffffffffffffffffffffffffffffffffffffff1673ffffffffffffffffffffffffffffffffffffffff1673ffffffffffffffffffffffffffffffffffffffff168152602001908152602001600020600082825461230b9190614b39565b925050819055505b600660009054906101000a900460ff169050919050565b60006001806005811115612341576123406140a2565b5b600660009054906101000a900460ff166005811115612363576123626140a2565b5b146123a3576040517f08c379a000000000000000000000000000000000000000000000000000000000815260040161239a906147da565b60405180910390fd5b833373ffffffffffffffffffffffffffffffffffffffff166123c482611a1a565b73ffffffffffffffffffffffffffffffffffffffff161461241a576040517f08c379a000000000000000000000000000000000000000000000000000000000815260040161241190614846565b60405180910390fd5b6001600281111561242e5761242d6140a2565b5b6007868154811061244257612441614866565b5b906000526020600020906002020160010160009054906101000a900460ff166002811115612473576124726140a2565b5b036124b3576040517f08c379a00000000000000000000000000000000000000000000000000000000081526004016124aa9061527a565b60405180910390fd5b60011515600a60009054906101000a900460ff16151514612509576040517f08c379a0000000000000000000000000000000000000000000000000000000008152600401612500906152e6565b60405180910390fd5b60026007868154811061251f5761251e614866565b5b906000526020600020906002020160010160006101000a81548160ff02191690836002811115612552576125516140a2565b5b0217905550836007868154811061256c5761256b614866565b5b906000526020600020906002020160000160106101000a8154816fffffffffffffffffffffffffffffffff02191690836fffffffffffffffffffffffffffffffff1602179055507fec1a51878793b26371980da80139946e4a398461978717cbe8d07596dd3404b633866040516125e4929190614e3f565b60405180910390a160019250505092915050565b6000600560008473ffffffffffffffffffffffffffffffffffffffff1673ffffffffffffffffffffffffffffffffffffffff16815260200190815260200160002060008373ffffffffffffffffffffffffffffffffffffffff1673ffffffffffffffffffffffffffffffffffffffff16815260200190815260200160002060009054906101000a900460ff16905092915050565b6000600160058111156126a2576126a16140a2565b5b600660009054906101000a900460ff1660058111156126c4576126c36140a2565b5b14806127035750600360058111156126df576126de6140a2565b5b600660009054906101000a900460ff166005811115612701576127006140a2565b5b145b612742576040517f08c379a000000000000000000000000000000000000000000000000000000000815260040161273990615352565b60405180910390fd5b600060095411612787576040517f08c379a000000000000000000000000000000000000000000000000000000000815260040161277e906153be565b60405180910390fd5b34600860009054906101000a90046fffffffffffffffffffffffffffffffff166fffffffffffffffffffffffffffffffff168110156127fb576040517f08c379a00000000000000000000000000000000000000000000000000000000081526004016127f290614a7e565b60405180910390fd5b612803613b39565b600860009054906101000a90046fffffffffffffffffffffffffffffffff1681600001906fffffffffffffffffffffffffffffffff1690816fffffffffffffffffffffffffffffffff1681525050600860009054906101000a90046fffffffffffffffffffffffffffffffff1681602001906fffffffffffffffffffffffffffffffff1690816fffffffffffffffffffffffffffffffff16815250506000816040019060028111156128b8576128b76140a2565b5b908160028111156128cc576128cb6140a2565b5b81525050600781908060018154018082558091505060019003906000526020600020906002020160009091909190915060008201518160000160006101000a8154816fffffffffffffffffffffffffffffffff02191690836fffffffffffffffffffffffffffffffff16021790555060208201518160000160106101000a8154816fffffffffffffffffffffffffffffffff02191690836fffffffffffffffffffffffffffffffff16021790555060408201518160010160006101000a81548160ff021916908360028111156129a5576129a46140a2565b5b02179055505050600060016007805490506129c09190614b39565b9050600960008154809291906129d5906153de565b9190505550600860009054906101000a90046fffffffffffffffffffffffffffffffff166fffffffffffffffffffffffffffffffff16341115612aaa576000600860009054906101000a90046fffffffffffffffffffffffffffffffff166fffffffffffffffffffffffffffffffff1634612a509190614b39565b905080600b60003373ffffffffffffffffffffffffffffffffffffffff1673ffffffffffffffffffffffffffffffffffffffff1681526020019081526020016000206000828254612aa19190614b6d565b92505081905550505b600860009054906101000a90046fffffffffffffffffffffffffffffffff166fffffffffffffffffffffffffffffffff16600b6000600a60029054906101000a900473ffffffffffffffffffffffffffffffffffffffff1673ffffffffffffffffffffffffffffffffffffffff1673ffffffffffffffffffffffffffffffffffffffff1681526020019081526020016000206000828254612b4b9190614b6d565b92505081905550612b5c3382613521565b7f1b430c41ad1e9efc507aac150600ae9a3da936ed08479682cf954ffe044cd3d730612b86610a2e565b3384604051612b989493929190614c43565b60405180910390a180935050505090565b600060078281548110612bbf57612bbe614866565b5b906000526020600020906002020160010160009054906101000a900460ff169050919050565b60007f01ffc9a7000000000000000000000000000000000000000000000000000000007bffffffffffffffffffffffffffffffffffffffffffffffffffffffff1916827bffffffffffffffffffffffffffffffffffffffffffffffffffffffff1916149050919050565b612c588161353f565b612c97576040517f08c379a0000000000000000000000000000000000000000000000000000000008152600401612c8e9061501e565b60405180910390fd5b50565b600033905090565b816004600083815260200190815260200160002060006101000a81548173ffffffffffffffffffffffffffffffffffffffff021916908373ffffffffffffffffffffffffffffffffffffffff160217905550808273ffffffffffffffffffffffffffffffffffffffff16612d1583611a1a565b73ffffffffffffffffffffffffffffffffffffffff167f8c5be1e5ebec7d5bd14f71427d1e84f3dd0314c0f7b2291e5b200ac8c7c3b92560405160405180910390a45050565b6000612d6682611a1a565b9050612d76816000846001613580565b612d7f82611a1a565b90506004600083815260200190815260200160002060006101000a81549073ffffffffffffffffffffffffffffffffffffffff02191690556001600360008373ffffffffffffffffffffffffffffffffffffffff1673ffffffffffffffffffffffffffffffffffffffff168152602001908152602001600020600082825403925050819055506002600083815260200190815260200160002060006101000a81549073ffffffffffffffffffffffffffffffffffffffff021916905581600073ffffffffffffffffffffffffffffffffffffffff168273ffffffffffffffffffffffffffffffffffffffff167fddf252ad1be2c89b69c2b068fc378daa952ba7f163c4a11628f55a4df523b3ef60405160405180910390a4612ea5816000846001613586565b5050565b600080612eb583611a1a565b90508073ffffffffffffffffffffffffffffffffffffffff168473ffffffffffffffffffffffffffffffffffffffff161480612ef75750612ef681856125f8565b5b80612f3557508373ffffffffffffffffffffffffffffffffffffffff16612f1d84610ac0565b73ffffffffffffffffffffffffffffffffffffffff16145b91505092915050565b8273ffffffffffffffffffffffffffffffffffffffff16612f5e82611a1a565b73ffffffffffffffffffffffffffffffffffffffff1614612fb4576040517f08c379a0000000000000000000000000000000000000000000000000000000008152600401612fab90615479565b60405180910390fd5b600073ffffffffffffffffffffffffffffffffffffffff168273ffffffffffffffffffffffffffffffffffffffff1603613023576040517f08c379a000000000000000000000000000000000000000000000000000000000815260040161301a9061550b565b60405180910390fd5b6130308383836001613580565b8273ffffffffffffffffffffffffffffffffffffffff1661305082611a1a565b73ffffffffffffffffffffffffffffffffffffffff16146130a6576040517f08c379a000000000000000000000000000000000000000000000000000000000815260040161309d90615479565b60405180910390fd5b6004600082815260200190815260200160002060006101000a81549073ffffffffffffffffffffffffffffffffffffffff02191690556001600360008573ffffffffffffffffffffffffffffffffffffffff1673ffffffffffffffffffffffffffffffffffffffff168152602001908152602001600020600082825403925050819055506001600360008473ffffffffffffffffffffffffffffffffffffffff1673ffffffffffffffffffffffffffffffffffffffff16815260200190815260200160002060008282540192505081905550816002600083815260200190815260200160002060006101000a81548173ffffffffffffffffffffffffffffffffffffffff021916908373ffffffffffffffffffffffffffffffffffffffff160217905550808273ffffffffffffffffffffffffffffffffffffffff168473ffffffffffffffffffffffffffffffffffffffff167fddf252ad1be2c89b69c2b068fc378daa952ba7f163c4a11628f55a4df523b3ef60405160405180910390a46132328383836001613586565b505050565b60006002600083815260200190815260200160002060009054906101000a900473ffffffffffffffffffffffffffffffffffffffff169050919050565b8173ffffffffffffffffffffffffffffffffffffffff168373ffffffffffffffffffffffffffffffffffffffff16036132e2576040517f08c379a00000000000000000000000000000000000000000000000000000000081526004016132d990615577565b60405180910390fd5b80600560008573ffffffffffffffffffffffffffffffffffffffff1673ffffffffffffffffffffffffffffffffffffffff16815260200190815260200160002060008473ffffffffffffffffffffffffffffffffffffffff1673ffffffffffffffffffffffffffffffffffffffff16815260200190815260200160002060006101000a81548160ff0219169083151502179055508173ffffffffffffffffffffffffffffffffffffffff168373ffffffffffffffffffffffffffffffffffffffff167f17307eab39ab6107e8899845ad3d59bd9653f200f220920489ca2b5937696c31836040516133d39190613c44565b60405180910390a3505050565b6133eb848484612f3e565b6133f78484848461358c565b613436576040517f08c379a000000000000000000000000000000000000000000000000000000000815260040161342d90615609565b60405180910390fd5b50505050565b606060405180602001604052806000815250905090565b6060600060016134628461374b565b01905060008167ffffffffffffffff81111561348157613480613e46565b5b6040519080825280601f01601f1916602001820160405280156134b35781602001600182028036833780820191505090505b509050600082602001820190505b600115613516578080600190039150507f3031323334353637383961626364656600000000000000000000000000000000600a86061a8153600a858161350a57613509614be3565b5b049450600085036134c1575b819350505050919050565b61353b82826040518060200160405280600081525061389e565b5050565b60008073ffffffffffffffffffffffffffffffffffffffff1661356183613237565b73ffffffffffffffffffffffffffffffffffffffff1614159050919050565b50505050565b50505050565b60006135ad8473ffffffffffffffffffffffffffffffffffffffff166138f9565b1561373e578373ffffffffffffffffffffffffffffffffffffffff1663150b7a026135d6612c9a565b8786866040518563ffffffff167c0100000000000000000000000000000000000000000000000000000000028152600401613614949392919061567e565b6020604051808303816000875af192505050801561365057506040513d601f19601f8201168201806040525081019061364d91906156df565b60015b6136d2573d8060008114613680576040519150601f19603f3d011682016040523d82523d6000602084013e613685565b606091505b5060008151036136ca576040517f08c379a00000000000000000000000000000000000000000000000000000000081526004016136c190615609565b60405180910390fd5b805181602001fd5b63150b7a027c0100000000000000000000000000000000000000000000000000000000027bffffffffffffffffffffffffffffffffffffffffffffffffffffffff1916817bffffffffffffffffffffffffffffffffffffffffffffffffffffffff191614915050613743565b600190505b949350505050565b600080600090507a184f03e93ff9f4daa797ed6e38ed64bf6a1f01000000000000000083106137a9577a184f03e93ff9f4daa797ed6e38ed64bf6a1f010000000000000000838161379f5761379e614be3565b5b0492506040810190505b6d04ee2d6d415b85acef810000000083106137e6576d04ee2d6d415b85acef810000000083816137dc576137db614be3565b5b0492506020810190505b662386f26fc10000831061381557662386f26fc10000838161380b5761380a614be3565b5b0492506010810190505b6305f5e100831061383e576305f5e100838161383457613833614be3565b5b0492506008810190505b612710831061386357612710838161385957613858614be3565b5b0492506004810190505b60648310613886576064838161387c5761387b614be3565b5b0492506002810190505b600a8310613895576001810190505b80915050919050565b6138a8838361391c565b6138b5600084848461358c565b6138f4576040517f08c379a00000000000000000000000000000000000000000000000000000000081526004016138eb90615609565b60405180910390fd5b505050565b6000808273ffffffffffffffffffffffffffffffffffffffff163b119050919050565b600073ffffffffffffffffffffffffffffffffffffffff168273ffffffffffffffffffffffffffffffffffffffff160361398b576040517f08c379a000000000000000000000000000000000000000000000000000000000815260040161398290615758565b60405180910390fd5b6139948161353f565b156139d4576040517f08c379a00000000000000000000000000000000000000000000000000000000081526004016139cb906157c4565b60405180910390fd5b6139e2600083836001613580565b6139eb8161353f565b15613a2b576040517f08c379a0000000000000000000000000000000000000000000000000000000008152600401613a22906157c4565b60405180910390fd5b6001600360008473ffffffffffffffffffffffffffffffffffffffff1673ffffffffffffffffffffffffffffffffffffffff16815260200190815260200160002060008282540192505081905550816002600083815260200190815260200160002060006101000a81548173ffffffffffffffffffffffffffffffffffffffff021916908373ffffffffffffffffffffffffffffffffffffffff160217905550808273ffffffffffffffffffffffffffffffffffffffff16600073ffffffffffffffffffffffffffffffffffffffff167fddf252ad1be2c89b69c2b068fc378daa952ba7f163c4a11628f55a4df523b3ef60405160405180910390a4613b35600083836001613586565b5050565b604051806060016040528060006fffffffffffffffffffffffffffffffff16815260200160006fffffffffffffffffffffffffffffffff16815260200160006002811115613b8a57613b896140a2565b5b81525090565b6000604051905090565b600080fd5b600080fd5b60007fffffffff0000000000000000000000000000000000000000000000000000000082169050919050565b613bd981613ba4565b8114613be457600080fd5b50565b600081359050613bf681613bd0565b92915050565b600060208284031215613c1257613c11613b9a565b5b6000613c2084828501613be7565b91505092915050565b60008115159050919050565b613c3e81613c29565b82525050565b6000602082019050613c596000830184613c35565b92915050565b6000819050919050565b613c7281613c5f565b8114613c7d57600080fd5b50565b600081359050613c8f81613c69565b92915050565b600060208284031215613cab57613caa613b9a565b5b6000613cb984828501613c80565b91505092915050565b600073ffffffffffffffffffffffffffffffffffffffff82169050919050565b6000613ced82613cc2565b9050919050565b613cfd81613ce2565b82525050565b6000602082019050613d186000830184613cf4565b92915050565b600081519050919050565b600082825260208201905092915050565b60005b83811015613d58578082015181840152602081019050613d3d565b60008484015250505050565b6000601f19601f8301169050919050565b6000613d8082613d1e565b613d8a8185613d29565b9350613d9a818560208601613d3a565b613da381613d64565b840191505092915050565b60006020820190508181036000830152613dc88184613d75565b905092915050565b613dd981613ce2565b8114613de457600080fd5b50565b600081359050613df681613dd0565b92915050565b60008060408385031215613e1357613e12613b9a565b5b6000613e2185828601613de7565b9250506020613e3285828601613c80565b9150509250929050565b600080fd5b600080fd5b7f4e487b7100000000000000000000000000000000000000000000000000000000600052604160045260246000fd5b613e7e82613d64565b810181811067ffffffffffffffff82111715613e9d57613e9c613e46565b5b80604052505050565b6000613eb0613b90565b9050613ebc8282613e75565b919050565b600067ffffffffffffffff821115613edc57613edb613e46565b5b613ee582613d64565b9050602081019050919050565b82818337600083830152505050565b6000613f14613f0f84613ec1565b613ea6565b905082815260208101848484011115613f3057613f2f613e41565b5b613f3b848285613ef2565b509392505050565b600082601f830112613f5857613f57613e3c565b5b8135613f68848260208601613f01565b91505092915050565b60008060408385031215613f8857613f87613b9a565b5b6000613f9685828601613c80565b925050602083013567ffffffffffffffff811115613fb757613fb6613b9f565b5b613fc385828601613f43565b9150509250929050565b600080600060608486031215613fe657613fe5613b9a565b5b6000613ff486828701613de7565b935050602061400586828701613de7565b925050604061401686828701613c80565b9150509250925092565b60006020828403121561403657614035613b9a565b5b600061404484828501613de7565b91505092915050565b61405681613c5f565b82525050565b6000602082019050614071600083018461404d565b92915050565b60006fffffffffffffffffffffffffffffffff82169050919050565b61409c81614077565b82525050565b7f4e487b7100000000000000000000000000000000000000000000000000000000600052602160045260246000fd5b600381106140e2576140e16140a2565b5b50565b60008190506140f3826140d1565b919050565b6000614103826140e5565b9050919050565b614113816140f8565b82525050565b600060608201905061412e6000830186614093565b61413b6020830185614093565b614148604083018461410a565b949350505050565b600061415b82613cc2565b9050919050565b61416b81614150565b82525050565b60006020820190506141866000830184614162565b92915050565b600081519050919050565b600082825260208201905092915050565b6000819050602082019050919050565b6141c181614077565b82525050565b6141d0816140f8565b82525050565b6060820160008201516141ec60008501826141b8565b5060208201516141ff60208501826141b8565b50604082015161421260408501826141c7565b50505050565b600061422483836141d6565b60608301905092915050565b6000602082019050919050565b60006142488261418c565b6142528185614197565b935061425d836141a8565b8060005b8381101561428e5781516142758882614218565b975061428083614230565b925050600181019050614261565b5085935050505092915050565b600060208201905081810360008301526142b5818461423d565b905092915050565b60006020820190506142d26000830184614093565b92915050565b6142e181613c29565b81146142ec57600080fd5b50565b6000813590506142fe816142d8565b92915050565b6000806040838503121561431b5761431a613b9a565b5b600061432985828601613de7565b925050602061433a858286016142ef565b9150509250929050565b600067ffffffffffffffff82111561435f5761435e613e46565b5b61436882613d64565b9050602081019050919050565b600061438861438384614344565b613ea6565b9050828152602081018484840111156143a4576143a3613e41565b5b6143af848285613ef2565b509392505050565b600082601f8301126143cc576143cb613e3c565b5b81356143dc848260208601614375565b91505092915050565b600080600080608085870312156143ff576143fe613b9a565b5b600061440d87828801613de7565b945050602061441e87828801613de7565b935050604061442f87828801613c80565b925050606085013567ffffffffffffffff8111156144505761444f613b9f565b5b61445c878288016143b7565b91505092959194509250565b60068110614479576144786140a2565b5b50565b600081905061448a82614468565b919050565b600061449a8261447c565b9050919050565b6144aa8161448f565b82525050565b60006020820190506144c560008301846144a1565b92915050565b600681106144d857600080fd5b50565b6000813590506144ea816144cb565b92915050565b60006020828403121561450657614505613b9a565b5b6000614514848285016144db565b91505092915050565b61452681614077565b811461453157600080fd5b50565b6000813590506145438161451d565b92915050565b600080604083850312156145605761455f613b9a565b5b600061456e85828601613c80565b925050602061457f85828601614534565b9150509250929050565b600080604083850312156145a05761459f613b9a565b5b60006145ae85828601613de7565b92505060206145bf85828601613de7565b9150509250929050565b60006020820190506145de600083018461410a565b92915050565b7f4e487b7100000000000000000000000000000000000000000000000000000000600052602260045260246000fd5b6000600282049050600182168061462b57607f821691505b60208210810361463e5761463d6145e4565b5b50919050565b7f4552433732313a20617070726f76616c20746f2063757272656e74206f776e6560008201527f7200000000000000000000000000000000000000000000000000000000000000602082015250565b60006146a0602183613d29565b91506146ab82614644565b604082019050919050565b600060208201905081810360008301526146cf81614693565b9050919050565b7f4552433732313a20617070726f76652063616c6c6572206973206e6f7420746f60008201527f6b656e206f776e6572206f7220617070726f76656420666f7220616c6c000000602082015250565b6000614732603d83613d29565b915061473d826146d6565b604082019050919050565b6000602082019050818103600083015261476181614725565b9050919050565b7f43616e6e6f7420657865637574652066756e6374696f6e20617420746869732060008201527f7374616765000000000000000000000000000000000000000000000000000000602082015250565b60006147c4602583613d29565b91506147cf82614768565b604082019050919050565b600060208201905081810360008301526147f3816147b7565b9050919050565b7f5573657220646f6573206e6f74206f776e2074686973207469636b6574000000600082015250565b6000614830601d83613d29565b915061483b826147fa565b602082019050919050565b6000602082019050818103600083015261485f81614823565b9050919050565b7f4e487b7100000000000000000000000000000000000000000000000000000000600052603260045260246000fd5b7f5468657265206973206e6f2076616c6964207469636b657420666f722074686960008201527f7320757365720000000000000000000000000000000000000000000000000000602082015250565b60006148f1602683613d29565b91506148fc82614895565b604082019050919050565b60006020820190508181036000830152614920816148e4565b9050919050565b600060808201905061493c6000830187613cf4565b614949602083018661404d565b818103604083015261495b8185613d75565b9050818103606083015261496f8184613d75565b905095945050505050565b7f4552433732313a2063616c6c6572206973206e6f7420746f6b656e206f776e6560008201527f72206f7220617070726f76656400000000000000000000000000000000000000602082015250565b60006149d6602d83613d29565b91506149e18261497a565b604082019050919050565b60006020820190508181036000830152614a05816149c9565b9050919050565b7f4e6f7420656e6f756768206d6f6e657920746f2070757263686173652061207460008201527f69636b6574000000000000000000000000000000000000000000000000000000602082015250565b6000614a68602583613d29565b9150614a7382614a0c565b604082019050919050565b60006020820190508181036000830152614a9781614a5b565b9050919050565b7f5469636b6574206e6f7420617661696c61626c6520666f722073616c65000000600082015250565b6000614ad4601d83613d29565b9150614adf82614a9e565b602082019050919050565b60006020820190508181036000830152614b0381614ac7565b9050919050565b7f4e487b7100000000000000000000000000000000000000000000000000000000600052601160045260246000fd5b6000614b4482613c5f565b9150614b4f83613c5f565b9250828203905081811115614b6757614b66614b0a565b5b92915050565b6000614b7882613c5f565b9150614b8383613c5f565b9250828201905080821115614b9b57614b9a614b0a565b5b92915050565b6000614bac82613c5f565b9150614bb783613c5f565b9250828202614bc581613c5f565b91508282048414831517614bdc57614bdb614b0a565b5b5092915050565b7f4e487b7100000000000000000000000000000000000000000000000000000000600052601260045260246000fd5b6000614c1d82613c5f565b9150614c2883613c5f565b925082614c3857614c37614be3565b5b828204905092915050565b6000608082019050614c586000830187613cf4565b8181036020830152614c6a8186613d75565b9050614c796040830185613cf4565b614c86606083018461404d565b95945050505050565b7f43616e206e6f7420626520657865637574656420627920746865206f776e6572600082015250565b6000614cc5602083613d29565b9150614cd082614c8f565b602082019050919050565b60006020820190508181036000830152614cf481614cb8565b9050919050565b7f5573657220646f6573206e6f742068617665206d6f6e657920746f207769746860008201527f6472617700000000000000000000000000000000000000000000000000000000602082015250565b6000614d57602483613d29565b9150614d6282614cfb565b604082019050919050565b60006020820190508181036000830152614d8681614d4a565b9050919050565b600081905092915050565b50565b6000614da8600083614d8d565b9150614db382614d98565b600082019050919050565b6000614dc982614d9b565b9150819050919050565b7f4661696c656420746f2073656e6420657468657220746f207573657200000000600082015250565b6000614e09601c83613d29565b9150614e1482614dd3565b602082019050919050565b60006020820190508181036000830152614e3881614dfc565b9050919050565b6000604082019050614e546000830185613cf4565b614e61602083018461404d565b9392505050565b7f43616e206f6e6c7920626520657865637574656420627920746865206f776e6560008201527f7200000000000000000000000000000000000000000000000000000000000000602082015250565b6000614ec4602183613d29565b9150614ecf82614e68565b604082019050919050565b60006020820190508181036000830152614ef381614eb7565b9050919050565b7f4e6f206d6f6e657920746f207769746864726177000000000000000000000000600082015250565b6000614f30601483613d29565b9150614f3b82614efa565b602082019050919050565b60006020820190508181036000830152614f5f81614f23565b9050919050565b7f4661696c656420746f2073656e6420657468657220746f206f776e6572000000600082015250565b6000614f9c601d83613d29565b9150614fa782614f66565b602082019050919050565b60006020820190508181036000830152614fcb81614f8f565b9050919050565b7f4552433732313a20696e76616c696420746f6b656e2049440000000000000000600082015250565b6000615008601883613d29565b915061501382614fd2565b602082019050919050565b6000602082019050818103600083015261503781614ffb565b9050919050565b7f4552433732313a2061646472657373207a65726f206973206e6f74206120766160008201527f6c6964206f776e65720000000000000000000000000000000000000000000000602082015250565b600061509a602983613d29565b91506150a58261503e565b604082019050919050565b600060208201905081810360008301526150c98161508d565b9050919050565b7f596f75206861766520616c7265616479207265676973746572656420746f206260008201527f7579000000000000000000000000000000000000000000000000000000000000602082015250565b600061512c602283613d29565b9150615137826150d0565b604082019050919050565b6000602082019050818103600083015261515b8161511f565b9050919050565b7f6e6f207065726d697373696f6e00000000000000000000000000000000000000600082015250565b6000615198600d83613d29565b91506151a382615162565b602082019050919050565b600060208201905081810360008301526151c78161518b565b9050919050565b600081905092915050565b60006151e482613d1e565b6151ee81856151ce565b93506151fe818560208601613d3a565b80840191505092915050565b600061521682856151d9565b915061522282846151d9565b91508190509392505050565b7f5469636b65742068617320616c7265616479206265656e207573656400000000600082015250565b6000615264601c83613d29565b915061526f8261522e565b602082019050919050565b6000602082019050818103600083015261529381615257565b9050919050565b7f5469636b65742063616e6e6f74206265207265736f6c64000000000000000000600082015250565b60006152d0601783613d29565b91506152db8261529a565b602082019050919050565b600060208201905081810360008301526152ff816152c3565b9050919050565b7f5469636b65747320617265206e6f74206f70656e20666f722073616c65000000600082015250565b600061533c601d83613d29565b915061534782615306565b602082019050919050565b6000602082019050818103600083015261536b8161532f565b9050919050565b7f5468657265206172652030207469636b657473206c6566740000000000000000600082015250565b60006153a8601883613d29565b91506153b382615372565b602082019050919050565b600060208201905081810360008301526153d78161539b565b9050919050565b60006153e982613c5f565b9150600082036153fc576153fb614b0a565b5b600182039050919050565b7f4552433732313a207472616e736665722066726f6d20696e636f72726563742060008201527f6f776e6572000000000000000000000000000000000000000000000000000000602082015250565b6000615463602583613d29565b915061546e82615407565b604082019050919050565b6000602082019050818103600083015261549281615456565b9050919050565b7f4552433732313a207472616e7366657220746f20746865207a65726f2061646460008201527f7265737300000000000000000000000000000000000000000000000000000000602082015250565b60006154f5602483613d29565b915061550082615499565b604082019050919050565b60006020820190508181036000830152615524816154e8565b9050919050565b7f4552433732313a20617070726f766520746f2063616c6c657200000000000000600082015250565b6000615561601983613d29565b915061556c8261552b565b602082019050919050565b6000602082019050818103600083015261559081615554565b9050919050565b7f4552433732313a207472616e7366657220746f206e6f6e20455243373231526560008201527f63656976657220696d706c656d656e7465720000000000000000000000000000602082015250565b60006155f3603283613d29565b91506155fe82615597565b604082019050919050565b60006020820190508181036000830152615622816155e6565b9050919050565b600081519050919050565b600082825260208201905092915050565b600061565082615629565b61565a8185615634565b935061566a818560208601613d3a565b61567381613d64565b840191505092915050565b60006080820190506156936000830187613cf4565b6156a06020830186613cf4565b6156ad604083018561404d565b81810360608301526156bf8184615645565b905095945050505050565b6000815190506156d981613bd0565b92915050565b6000602082840312156156f5576156f4613b9a565b5b6000615703848285016156ca565b91505092915050565b7f4552433732313a206d696e7420746f20746865207a65726f2061646472657373600082015250565b6000615742602083613d29565b915061574d8261570c565b602082019050919050565b6000602082019050818103600083015261577181615735565b9050919050565b7f4552433732313a20746f6b656e20616c7265616479206d696e74656400000000600082015250565b60006157ae601c83613d29565b91506157b982615778565b602082019050919050565b600060208201905081810360008301526157dd816157a1565b905091905056fea26469706673582212208027bd704cefa62a4feb1723e646d048be6d54ab212b921db00c0e5cdeb37edc64736f6c634300081b0033a26469706673582212200bad92f6e26204d2aa224578f230d68ea6c9e93c002fb7980483d45013a7579564736f6c634300081b0033",
  "immutableReferences": {},
  "source": "// SPDX-License-Identifier: UNLICENSED\r\npragma solidity 0.8.27;\r\nimport \"@openzeppelin/contracts/token/ERC721/ERC721.sol\";\r\n \r\n/// @title Factory Contract to create events\r\ncontract EventCreator {\r\n\r\n    // Created events\r\n    Event[] public events;\r\n\r\n    // EVENTS\r\n    event CreateEvent(address _creator, address _event);\r\n\r\n    /**\r\n     * @notice Creates Events\r\n     * @param _numTickets Number of tickets \r\n     * @param _price Price per ticket\r\n     * @param _canBeResold Are tickets allowed to be resold\r\n     * @param _royaltyPercent Royalty percentage accrued by organizers on reselling of ticket\r\n     * @param _eventName Name of the Ticket NFT\r\n     * @param _eventSymbol Symbol for the Ticket NFT Token\r\n     */\r\n    function createEvent(uint256 _numTickets, uint128 _price, bool _canBeResold, uint128 _royaltyPercent,\r\n            string memory _eventName, string memory _eventSymbol) external returns(address newEvent) {\r\n\r\n        // Create a new Event smart contract\r\n        Event e = new Event(msg.sender, _numTickets, _price, _canBeResold, _royaltyPercent, _eventName, _eventSymbol);\r\n        \r\n        // Store/return event address\r\n        events.push(e);\r\n        address eventAddress = address(e);\r\n        emit CreateEvent(msg.sender, eventAddress);\r\n\r\n        return eventAddress;\r\n    }\r\n\r\n\r\n    /**\r\n     * @notice Retrieve number of events\r\n     */\r\n    function getEventCount() public view returns(uint contractCount) {\r\n        return events.length;\r\n    }\r\n\r\n    // Returns array of all events\r\n    function getEvents() external view returns(Event[] memory _events) {\r\n        _events = new Event[] (events.length);\r\n        for (uint i=0; i<events.length; i++){\r\n            _events[i] = events[i];\r\n        }\r\n\r\n        return _events;\r\n    }  \r\n}\r\n\r\n/// @title Contract to mint tickets of an event\r\ncontract Event is ERC721 {\r\n    /// Control Event Status at a granular level\r\n    enum Stages { Prep, Active, Paused, CheckinOpen, Cancelled, Closed }\r\n    // Stages public stage = Stages.Prep;\r\n    Stages public stage;\r\n    /// Control Ticket Status at a granular level\r\n    /// Valid - Ticket is Valid\r\n    /// Used - Ticket is used\r\n    /// AvailableForSale - Ticket is allowed to be sold to someone\r\n    enum TicketStatus { Valid, Used, AvailableForSale }\r\n    \r\n    // Ticket struct \r\n    struct Ticket {\r\n        uint128 price;\r\n        uint128 resalePrice;\r\n        TicketStatus status;\r\n    }\r\n    \r\n    // array to store tickets, index will be ticketID\r\n    Ticket[] public tickets;\r\n    \r\n    // ticket original price\r\n    uint128 public price;\r\n    \r\n    // Percent royalty event creator receives from ticket resales\r\n    uint128 public royaltyPercent;\r\n    \r\n    // number of tickets left to sell\r\n    uint256 public numTicketsLeft;\r\n    \r\n    // if ticket can be resold in the second market\r\n    bool public canBeResold;\r\n    \r\n    // if event is cancelled\r\n    bool public isCancelled;\r\n    \r\n    // orginizer of event\r\n    address payable public owner;\r\n    \r\n    // to store the balances for buyers and organizers\r\n    mapping(address => uint) public balances;\r\n    mapping(address => bool) public isUserRefund;\r\n    mapping(uint => address) public registeredBuyers;\r\n\r\n    // EVENTS\r\n    event CreateTicket(address contractAddress, string eventName, address buyer, uint ticketID);\r\n    event WithdrawMoney(address receiver, uint money);\r\n    event OwnerWithdrawMoney(address owner, uint money);\r\n    event TicketForSale(address seller, uint ticketID);\r\n    event TicketSold(address contractAddress, string eventName, address buyer, uint ticketID);\r\n    event TicketUsed(address contractAddress, uint ticketID, string eventName, string sQRCodeKey);\r\n\r\n    // Creates a new Event Contract\r\n    constructor(address _owner, uint256 _numTickets, uint128 _price, bool _canBeResold, uint128 _royaltyPercent,\r\n            string memory _eventName, string memory _eventSymbol) ERC721(_eventName, _eventSymbol) {    \r\n        // Check valid constructor arguments\r\n        require(_royaltyPercent >= 0 && _royaltyPercent <= 100, \"Royalty Percentage must be between 0 and 100\");\r\n        // Number of tickets must be greater than 0\r\n        require(_numTickets > 0, \"The number of tickets must be greater than 0\");\r\n        // EventName, EventSymbol cannot be empty string\r\n        bytes memory eventNameBytes = bytes(_eventName);\r\n        bytes memory eventSymbolBytes = bytes(_eventSymbol);\r\n        require(eventNameBytes.length != 0, \"Event Name cannot be empty\");\r\n        require(eventSymbolBytes.length != 0, \"Event Symbol cannot be empty\");\r\n        \r\n        owner = payable(_owner);\r\n        numTicketsLeft = _numTickets;\r\n        price = _price;\r\n        canBeResold = _canBeResold;\r\n        royaltyPercent = _royaltyPercent;\r\n        stage = Stages.Prep;\r\n    }\r\n\r\n    /**\r\n     * @notice Buy tickets\r\n     * @dev Checks: State is Active, has enough money\r\n     */\r\n    function buyTicket() public payable buyingTicketOpen ticketsLeft \r\n                                            hasEnoughMoney(msg.value) returns (uint){\r\n        // Create Ticket t\r\n        Ticket memory t;\r\n        t.price = price;\r\n        t.resalePrice = price;\r\n        t.status = TicketStatus.Valid;\r\n\r\n        // Store t in tickets array\r\n        tickets.push(t);\r\n        uint ticketID = tickets.length - 1;\r\n        numTicketsLeft--;\r\n        \r\n        // store overpaid in balances\r\n        if (msg.value > price) {\r\n            uint amount = msg.value - price;\r\n            balances[msg.sender] += amount;\r\n        }\r\n        balances[owner] += price;\r\n        \r\n        // Mint NFT\r\n        _safeMint(msg.sender, ticketID);\r\n        emit CreateTicket(address(this), name(), msg.sender, ticketID);\r\n        \r\n        return ticketID;\r\n    }\r\n\r\n    /**\r\n     * @notice Mark ticket as used\r\n     * @dev Only a valid buyer can mark ticket as used\r\n     * @param ticketID ticket ID of ticket\r\n     */\r\n    function buyTicketFromUser(uint ticketID) public payable requiredStage(Stages.Active) hasEnoughMoney(msg.value) returns (bool) {\r\n        // Check if ticket is available for sale\r\n        require(tickets[ticketID].status == TicketStatus.AvailableForSale, \"Ticket not available for sale\");\r\n\r\n        // calc amount to pay after royalty\r\n        uint ticketPrice = tickets[ticketID].resalePrice;\r\n        // store overpaid in balances\r\n        if (msg.value > ticketPrice) {\r\n            uint amount = msg.value - ticketPrice;\r\n            balances[msg.sender] += amount;\r\n        }\r\n        uint royalty = (royaltyPercent * ticketPrice) / 100;\r\n        uint priceToPay = ticketPrice - royalty;\r\n\r\n        address payable seller = payable(ownerOf(ticketID));\r\n        // store balances for seller and owner to withdraw later\r\n        balances[seller] += priceToPay;\r\n        balances[owner] += royalty;\r\n        \r\n        emit TicketSold(address(this), name(), msg.sender, ticketID);\r\n        safeTransferFrom(seller, msg.sender, ticketID);\r\n\r\n        tickets[ticketID].status = TicketStatus.Valid;\r\n\r\n        return true;\r\n\r\n    }\r\n    \r\n    /**\r\n     * @notice Mark ticket as used\r\n     * @dev Only a valid buyer can mark ticket as used\r\n     * @param ticketID ticket ID of ticket\r\n     * @param sQRCodeKey QR Code key sent by the app \r\n     */\r\n    function setTicketToUsed(uint ticketID, string memory sQRCodeKey) public requiredStage(Stages.CheckinOpen)\r\n                                                                    ownsTicket(ticketID) returns (string memory){\r\n\t\t// Validate that user has a ticket they own and it is valid\r\n        require(tickets[ticketID].status == TicketStatus.Valid, \"There is no valid ticket for this user\");\r\n    \r\n        // Ticket is valid so mark it as used\r\n        tickets[ticketID].status = TicketStatus.Used;\r\n\r\n        // Burn the Token\r\n        _burn(ticketID); \r\n        \r\n        // Raise event which Gate Management system can consume then\r\n        emit TicketUsed(address(this), ticketID, name(), sQRCodeKey);\r\n        \r\n        return sQRCodeKey;\r\n\t}\r\n\r\n    /**\r\n     * @notice Mark ticket as used\r\n     * @dev Only a valid buyer can mark ticket as used\r\n     * @param ticketID ticket ID of ticket\r\n     * @param resalePrice resale price for ticket\r\n     */\r\n    function setTicketForSale(uint ticketID, uint128 resalePrice) public requiredStage(Stages.Active) ownsTicket(ticketID) returns(bool) {\r\n\t\t// Validate that user has a ticket they own and it is valid\r\n        require(tickets[ticketID].status != TicketStatus.Used, \"Ticket has already been used\");\r\n        require(canBeResold == true, \"Ticket cannot be resold\");\r\n        \r\n        // Ticket is valid so mark it as used\r\n        tickets[ticketID].status = TicketStatus.AvailableForSale;\r\n        tickets[ticketID].resalePrice = resalePrice;\r\n        \r\n        // Raise event which Gate Management system can consume then\r\n        emit TicketForSale(msg.sender, ticketID);\r\n        \r\n        //return ticketID;\r\n        return true;\r\n\t}\r\n\r\n    /**\r\n     * @dev get all tickets \r\n     */\r\n    function getTicketsCreated() public view returns(Ticket [] memory){\r\n        return tickets;\r\n    }\r\n\r\n    /**\r\n     * @dev get ticket status\r\n     */\r\n    function getTicketStatus(uint ticketID) public view returns (TicketStatus) {\r\n        return tickets[ticketID].status;\r\n    }\r\n\t\r\n   /**\r\n     * @notice owner can only withdraw what's in the balances\r\n     * @dev once the event is cancelled, organizer should refund money to buyers\r\n     */\r\n    function ownerWithdraw() public onlyOwner requiredStage(Stages.Closed) {\r\n        uint ownerBalance = balances[owner];\r\n        require(ownerBalance > 0, \"No money to withdraw\");\r\n        \r\n        // Update balance before transfering money\r\n        balances[owner] = 0;\r\n\r\n        // Call will forwards all available gas\r\n        (bool sent, ) = msg.sender.call{value:ownerBalance}(\"\");\r\n        // Failure condition if cannot transfer\r\n        require(sent, \"Failed to send ether to owner\");\r\n        emit OwnerWithdrawMoney(msg.sender, ownerBalance);\r\n    }\r\n\r\n    /**\r\n     * @notice User to withdraw money \r\n     * @dev User can withdraw money if event cancelled or overpaid for ticket\r\n     */\r\n    function withdraw() public {\r\n        require(msg.sender != owner, \"Can not be executed by the owner\");\r\n        // Amount to send to user\r\n        uint sendToUser = balances[msg.sender];\r\n        \r\n        // If event cancelled, send user the amount they overpaid for ticket + ticket price refund\r\n        if (isCancelled && isUserRefund[msg.sender] == false ) {\r\n            sendToUser += balanceOf(msg.sender) * price;\r\n        }\r\n\r\n        // Cannot withdraw if no money to withdraw\r\n        require(sendToUser > 0, \"User does not have money to withdraw\");\r\n        \r\n        // Update balance before transfering money\r\n        balances[msg.sender] = 0;\r\n        isUserRefund[msg.sender] = true;\r\n\r\n        // Transfer money to user\r\n        address payable receiver = payable(msg.sender);\r\n        // Call will forwards all available gas\r\n        (bool sent, ) = receiver.call{value:sendToUser}(\"\");\r\n        // Failure condition of send will emit this error\r\n        require(sent, \"Failed to send ether to user\");\r\n        emit WithdrawMoney(msg.sender, sendToUser);\r\n        \r\n    }\r\n\r\n    /**\r\n     * @dev approve a buyer to buy ticket of another user\r\n     */\r\n    function approveAsBuyer(address buyer, uint ticketID) public requiredStage(Stages.Active){\r\n        require(ownerOf(ticketID) == msg.sender, \"no permission\");\r\n        setApprovalForAll(buyer, bool(true));\r\n        approve(buyer, ticketID);\r\n    }\r\n\r\n    /**\r\n     * @dev register as buyer\r\n     */\r\n    function registerAsBuyer(uint ticketID) public requiredStage(Stages.Active){\r\n        require(registeredBuyers[ticketID] != msg.sender, \"You have already registered to buy\");\r\n\r\n        registeredBuyers[ticketID] = msg.sender;\r\n\r\n    }\r\n\r\n    /**\r\n     * @dev get registered buyer\r\n     */\r\n    function getRegisteredBuyer(uint ticketID) public view returns(address) {\r\n        return registeredBuyers[ticketID];\r\n    }\r\n    \r\n    /** \r\n     * @notice Change Status\r\n     * @dev Only owner can change state\r\n     * @param _stage Stages as set in enum Stages\r\n     */\r\n    function setStage(Stages _stage) public onlyOwner returns (Stages) {\r\n        stage = _stage;\r\n        if (stage == Stages.Cancelled) {\r\n            isCancelled = true;\r\n            balances[owner] -= price * tickets.length;\r\n        }\r\n        return stage;\r\n    }\r\n\r\n\r\n    // MODIFIERS\r\n    // Only owner\r\n    modifier onlyOwner() {\r\n        require(msg.sender == owner, \"Can only be executed by the owner\");\r\n        _;\r\n    }\r\n\r\n    // Requires stage to be _stage\r\n    modifier requiredStage(Stages _stage) {\r\n        require(stage == _stage, \"Cannot execute function at this stage\");\r\n        _;\r\n    }\r\n    \r\n    // Check if buying is open\r\n    modifier buyingTicketOpen() {\r\n        require(stage == Stages.Active || stage == Stages.CheckinOpen, \"Tickets are not open for sale\");\r\n        _;\r\n    }\r\n\r\n    // Requires there to be more than 0 tickets left\r\n    modifier ticketsLeft() {\r\n        require(numTicketsLeft > 0, \"There are 0 tickets left\");\r\n        _;\r\n    }\r\n    \r\n    // Requires user send enough money to smart contract\r\n    modifier hasEnoughMoney(uint money) {\r\n        require(money >= price, \"Not enough money to purchase a ticket\");\r\n        _;\r\n    }\r\n\r\n    // Check if user is ticket owner\r\n    modifier ownsTicket(uint ticketID) {\r\n        require(ownerOf(ticketID) == msg.sender, \"User does not own this ticket\");\r\n        _;\r\n    }\r\n    \r\n}\r\n\r\n",
  "sourcePath": "C:\\Users\\offic\\OneDrive\\Desktop\\EDI\\demo\\NFT-Event-Ticketing\\src\\contracts\\Event_old.sol",
  "compiler": {
    "name": "solc",
    "version": "0.8.27+commit.40a35a09.Emscripten.clang"
  },
  "schemaVersion": "3.4.16",
  "updatedAt": "2024-10-15T05:56:05.655Z",
  "networkType": "ethereum",
  "devdoc": {
    "kind": "dev",
    "methods": {
      "createEvent(uint256,uint128,bool,uint128,string,string)": {
        "params": {
          "_canBeResold": "Are tickets allowed to be resold",
          "_eventName": "Name of the Ticket NFT",
          "_eventSymbol": "Symbol for the Ticket NFT Token",
          "_numTickets": "Number of tickets ",
          "_price": "Price per ticket",
          "_royaltyPercent": "Royalty percentage accrued by organizers on reselling of ticket"
        }
      }
    },
    "title": "Factory Contract to create events",
    "version": 1
  },
  "userdoc": {
    "kind": "user",
    "methods": {
      "createEvent(uint256,uint128,bool,uint128,string,string)": {
        "notice": "Creates Events"
      },
      "getEventCount()": {
        "notice": "Retrieve number of events"
      }
    },
    "version": 1
  }
}