{
  "contractName": "EventCreator2",
  "abi": [
    {
      "anonymous": false,
      "inputs": [
        {
          "indexed": false,
          "internalType": "address",
          "name": "_creator",
          "type": "address"
        },
        {
          "indexed": false,
          "internalType": "address",
          "name": "_event",
          "type": "address"
        }
      ],
      "name": "CreateEvent",
      "type": "event"
    },
    {
      "inputs": [
        {
          "internalType": "uint256",
          "name": "_numTickets",
          "type": "uint256"
        },
        {
          "internalType": "uint256",
          "name": "_price",
          "type": "uint256"
        },
        {
          "internalType": "bool",
          "name": "_canBeResold",
          "type": "bool"
        },
        {
          "internalType": "uint256",
          "name": "_royaltyPercent",
          "type": "uint256"
        },
        {
          "internalType": "string",
          "name": "_eventName",
          "type": "string"
        },
        {
          "internalType": "string",
          "name": "_eventSymbol",
          "type": "string"
        }
      ],
      "name": "createEvent",
      "outputs": [
        {
          "internalType": "contract Event",
          "name": "newEvent",
          "type": "address"
        }
      ],
      "stateMutability": "nonpayable",
      "type": "function"
    }
  ],
  "bytecode": "0x6080604052348015600f57600080fd5b50615d8a8061001f6000396000f3fe608060405234801561001057600080fd5b5060043610610048576000357c010000000000000000000000000000000000000000000000000000000090048063f8cf8eff1461004d575b600080fd5b610067600480360381019061006291906102de565b61007d565b6040516100749190610422565b60405180910390f35b6000803388888888888860405161009390610109565b6100a397969594939291906104fb565b604051809103906000f0801580156100bf573d6000803e3d6000fd5b5090507f64f31017a670226c80c75659d4bb64bf5bb7f8490fef658f1be89d99583fe30433826040516100f3929190610578565b60405180910390a1809150509695505050505050565b6157b3806105a283390190565b6000604051905090565b600080fd5b600080fd5b6000819050919050565b61013d8161012a565b811461014857600080fd5b50565b60008135905061015a81610134565b92915050565b60008115159050919050565b61017581610160565b811461018057600080fd5b50565b6000813590506101928161016c565b92915050565b600080fd5b600080fd5b6000601f19601f8301169050919050565b7f4e487b7100000000000000000000000000000000000000000000000000000000600052604160045260246000fd5b6101eb826101a2565b810181811067ffffffffffffffff8211171561020a576102096101b3565b5b80604052505050565b600061021d610116565b905061022982826101e2565b919050565b600067ffffffffffffffff821115610249576102486101b3565b5b610252826101a2565b9050602081019050919050565b82818337600083830152505050565b600061028161027c8461022e565b610213565b90508281526020810184848401111561029d5761029c61019d565b5b6102a884828561025f565b509392505050565b600082601f8301126102c5576102c4610198565b5b81356102d584826020860161026e565b91505092915050565b60008060008060008060c087890312156102fb576102fa610120565b5b600061030989828a0161014b565b965050602061031a89828a0161014b565b955050604061032b89828a01610183565b945050606061033c89828a0161014b565b935050608087013567ffffffffffffffff81111561035d5761035c610125565b5b61036989828a016102b0565b92505060a087013567ffffffffffffffff81111561038a57610389610125565b5b61039689828a016102b0565b9150509295509295509295565b600073ffffffffffffffffffffffffffffffffffffffff82169050919050565b6000819050919050565b60006103e86103e36103de846103a3565b6103c3565b6103a3565b9050919050565b60006103fa826103cd565b9050919050565b600061040c826103ef565b9050919050565b61041c81610401565b82525050565b60006020820190506104376000830184610413565b92915050565b6000610448826103a3565b9050919050565b6104588161043d565b82525050565b6104678161012a565b82525050565b61047681610160565b82525050565b600081519050919050565b600082825260208201905092915050565b60005b838110156104b657808201518184015260208101905061049b565b60008484015250505050565b60006104cd8261047c565b6104d78185610487565b93506104e7818560208601610498565b6104f0816101a2565b840191505092915050565b600060e082019050610510600083018a61044f565b61051d602083018961045e565b61052a604083018861045e565b610537606083018761046d565b610544608083018661045e565b81810360a083015261055681856104c2565b905081810360c083015261056a81846104c2565b905098975050505050505050565b600060408201905061058d600083018561044f565b61059a602083018461044f565b939250505056fe608060405234801561001057600080fd5b506040516157b33803806157b383398181016040528101906100329190610466565b81818160009081610043919061075d565b508060019081610053919061075d565b50505060008310158015610068575060648311155b6100a7576040517f08c379a000000000000000000000000000000000000000000000000000000000815260040161009e9061088c565b60405180910390fd5b600086116100ea576040517f08c379a00000000000000000000000000000000000000000000000000000000081526004016100e1906108f8565b60405180910390fd5b600082905060008290506000825103610138576040517f08c379a000000000000000000000000000000000000000000000000000000000815260040161012f90610964565b60405180910390fd5b600081510361017c576040517f08c379a0000000000000000000000000000000000000000000000000000000008152600401610173906109d0565b60405180910390fd5b88600b60026101000a81548173ffffffffffffffffffffffffffffffffffffffff021916908373ffffffffffffffffffffffffffffffffffffffff16021790555087600a819055508660088190555085600b60006101000a81548160ff021916908315150217905550846009819055506000600660006101000a81548160ff02191690836004811115610212576102116109f0565b5b0217905550505050505050505050610a1f565b6000604051905090565b600080fd5b600080fd5b600073ffffffffffffffffffffffffffffffffffffffff82169050919050565b600061026482610239565b9050919050565b61027481610259565b811461027f57600080fd5b50565b6000815190506102918161026b565b92915050565b6000819050919050565b6102aa81610297565b81146102b557600080fd5b50565b6000815190506102c7816102a1565b92915050565b60008115159050919050565b6102e2816102cd565b81146102ed57600080fd5b50565b6000815190506102ff816102d9565b92915050565b600080fd5b600080fd5b6000601f19601f8301169050919050565b7f4e487b7100000000000000000000000000000000000000000000000000000000600052604160045260246000fd5b6103588261030f565b810181811067ffffffffffffffff8211171561037757610376610320565b5b80604052505050565b600061038a610225565b9050610396828261034f565b919050565b600067ffffffffffffffff8211156103b6576103b5610320565b5b6103bf8261030f565b9050602081019050919050565b60005b838110156103ea5780820151818401526020810190506103cf565b60008484015250505050565b60006104096104048461039b565b610380565b9050828152602081018484840111156104255761042461030a565b5b6104308482856103cc565b509392505050565b600082601f83011261044d5761044c610305565b5b815161045d8482602086016103f6565b91505092915050565b600080600080600080600060e0888a0312156104855761048461022f565b5b60006104938a828b01610282565b97505060206104a48a828b016102b8565b96505060406104b58a828b016102b8565b95505060606104c68a828b016102f0565b94505060806104d78a828b016102b8565b93505060a088015167ffffffffffffffff8111156104f8576104f7610234565b5b6105048a828b01610438565b92505060c088015167ffffffffffffffff81111561052557610524610234565b5b6105318a828b01610438565b91505092959891949750929550565b600081519050919050565b7f4e487b7100000000000000000000000000000000000000000000000000000000600052602260045260246000fd5b6000600282049050600182168061059257607f821691505b6020821081036105a5576105a461054b565b5b50919050565b60008190508160005260206000209050919050565b60006020601f8301049050919050565b60008160020a8302905092915050565b6000600883026106107fffffffffffffffffffffffffffffffffffffffffffffffffffffffffffffffff826105d0565b61061a86836105d0565b95508019841693508086168417925050509392505050565b6000819050919050565b600061065761065261064d84610297565b610632565b610297565b9050919050565b6000819050919050565b6106718361063c565b61068561067d8261065e565b8484546105e0565b825550505050565b600090565b61069a61068d565b6106a5818484610668565b505050565b5b818110156106c9576106be600082610692565b6001810190506106ab565b5050565b601f82111561070e576106df816105ab565b6106e8846105c0565b810160208510156106f7578190505b61070b610703856105c0565b8301826106aa565b50505b505050565b60008160020a8304905092915050565b600061073460001984600802610713565b1980831691505092915050565b600061074d8383610723565b9150826002028217905092915050565b61076682610540565b67ffffffffffffffff81111561077f5761077e610320565b5b610789825461057a565b6107948282856106cd565b600060209050601f8311600181146107c757600084156107b5578287015190505b6107bf8582610741565b865550610827565b601f1984166107d5866105ab565b60005b828110156107fd578489015182556001820191506020850194506020810190506107d8565b8683101561081a5784890151610816601f891682610723565b8355505b6001600288020188555050505b505050505050565b600082825260208201905092915050565b7f726f79616c74792070657263656e740000000000000000000000000000000000600082015250565b6000610876600f8361082f565b915061088182610840565b602082019050919050565b600060208201905081810360008301526108a581610869565b9050919050565b7f6e756d626572206f66207469636b657473000000000000000000000000000000600082015250565b60006108e260118361082f565b91506108ed826108ac565b602082019050919050565b60006020820190508181036000830152610911816108d5565b9050919050565b7f6576656e74206e616d6500000000000000000000000000000000000000000000600082015250565b600061094e600a8361082f565b915061095982610918565b602082019050919050565b6000602082019050818103600083015261097d81610941565b9050919050565b7f6576656e742073796d626f6c0000000000000000000000000000000000000000600082015250565b60006109ba600c8361082f565b91506109c582610984565b602082019050919050565b600060208201905081810360008301526109e9816109ad565b9050919050565b7f4e487b7100000000000000000000000000000000000000000000000000000000600052602160045260246000fd5b614d8580610a2e6000396000f3fe608060405260043610610200576000357c01000000000000000000000000000000000000000000000000000000009004806394d51fc01161011f578063a51bba8c116100b2578063c87b56dd11610081578063c87b56dd14610751578063ce3cd9971461078e578063e985e9c5146107cb578063edca914c1461080857610200565b8063a51bba8c146106a7578063b3874c0d146106d2578063b88d4fde146106fd578063c040e6b81461072657610200565b80639f67756d116100ee5780639f67756d146105eb578063a035b1fe14610616578063a22cb46514610641578063a49aa5441461066a57610200565b806394d51fc01461052f57806395d89b411461056c57806395ee1221146105975780639aecd64a146105c257610200565b80633ccfd60b116101975780636352211e116101665780636352211e1461046157806370a082311461049e57806383047374146104db5780638da5cb5b1461050457610200565b80633ccfd60b146103a657806342842e0e146103bd5780634680a424146103e657806350b447121461042357610200565b806318b3822f116101d357806318b3822f146102d357806323b872dd1461031057806327e235e3146103395780632f31707c1461037657610200565b806301ffc9a71461020557806306fdde0314610242578063081812fc1461026d578063095ea7b3146102aa575b600080fd5b34801561021157600080fd5b5061022c600480360381019061022791906133f1565b610826565b6040516102399190613439565b60405180910390f35b34801561024e57600080fd5b50610257610908565b60405161026491906134e4565b60405180910390f35b34801561027957600080fd5b50610294600480360381019061028f919061353c565b61099a565b6040516102a191906135aa565b60405180910390f35b3480156102b657600080fd5b506102d160048036038101906102cc91906135f1565b6109e0565b005b3480156102df57600080fd5b506102fa60048036038101906102f59190613766565b610af7565b60405161030791906134e4565b60405180910390f35b34801561031c57600080fd5b50610337600480360381019061033291906137c2565b610d26565b005b34801561034557600080fd5b50610360600480360381019061035b9190613815565b610d86565b60405161036d9190613851565b60405180910390f35b610390600480360381019061038b919061353c565b610d9e565b60405161039d9190613439565b60405180910390f35b3480156103b257600080fd5b506103bb6110fd565b005b3480156103c957600080fd5b506103e460048036038101906103df91906137c2565b611723565b005b3480156103f257600080fd5b5061040d60048036038101906104089190613815565b611743565b60405161041a9190613439565b60405180910390f35b34801561042f57600080fd5b5061044a6004803603810190610445919061353c565b611763565b6040516104589291906138e3565b60405180910390f35b34801561046d57600080fd5b506104886004803603810190610483919061353c565b6117a4565b60405161049591906135aa565b60405180910390f35b3480156104aa57600080fd5b506104c560048036038101906104c09190613815565b61182a565b6040516104d29190613851565b60405180910390f35b3480156104e757600080fd5b5061050260048036038101906104fd919061353c565b6118e1565b005b34801561051057600080fd5b50610519611a4f565b604051610526919061392d565b60405180910390f35b34801561053b57600080fd5b506105566004803603810190610551919061353c565b611a75565b60405161056391906135aa565b60405180910390f35b34801561057857600080fd5b50610581611aa8565b60405161058e91906134e4565b60405180910390f35b3480156105a357600080fd5b506105ac611b3a565b6040516105b99190613439565b60405180910390f35b3480156105ce57600080fd5b506105e960048036038101906105e491906135f1565b611b4d565b005b3480156105f757600080fd5b50610600611c54565b60405161060d9190613851565b60405180910390f35b34801561062257600080fd5b5061062b611c5a565b6040516106389190613851565b60405180910390f35b34801561064d57600080fd5b5061066860048036038101906106639190613974565b611c60565b005b34801561067657600080fd5b50610691600480360381019061068c91906139b4565b611c76565b60405161069e9190613439565b60405180910390f35b3480156106b357600080fd5b506106bc611f12565b6040516106c99190613851565b60405180910390f35b3480156106de57600080fd5b506106e7611f18565b6040516106f49190613439565b60405180910390f35b34801561070957600080fd5b50610724600480360381019061071f9190613a95565b611f2b565b005b34801561073257600080fd5b5061073b611f8d565b6040516107489190613b60565b60405180910390f35b34801561075d57600080fd5b506107786004803603810190610773919061353c565b611fa0565b60405161078591906134e4565b60405180910390f35b34801561079a57600080fd5b506107b560048036038101906107b09190613ba0565b612008565b6040516107c29190613b60565b60405180910390f35b3480156107d757600080fd5b506107f260048036038101906107ed9190613bcd565b6120db565b6040516107ff9190613439565b60405180910390f35b61081061216f565b60405161081d9190613851565b60405180910390f35b60007f80ac58cd000000000000000000000000000000000000000000000000000000007bffffffffffffffffffffffffffffffffffffffffffffffffffffffff1916827bffffffffffffffffffffffffffffffffffffffffffffffffffffffff191614806108f157507f5b5e139f000000000000000000000000000000000000000000000000000000007bffffffffffffffffffffffffffffffffffffffffffffffffffffffff1916827bffffffffffffffffffffffffffffffffffffffffffffffffffffffff1916145b80610901575061090082612431565b5b9050919050565b60606000805461091790613c3c565b80601f016020809104026020016040519081016040528092919081815260200182805461094390613c3c565b80156109905780601f1061096557610100808354040283529160200191610990565b820191906000526020600020905b81548152906001019060200180831161097357829003601f168201915b5050505050905090565b60006109a58261249b565b6004600083815260200190815260200160002060009054906101000a900473ffffffffffffffffffffffffffffffffffffffff169050919050565b60006109eb826117a4565b90508073ffffffffffffffffffffffffffffffffffffffff168373ffffffffffffffffffffffffffffffffffffffff1603610a5b576040517f08c379a0000000000000000000000000000000000000000000000000000000008152600401610a5290613cdf565b60405180910390fd5b8073ffffffffffffffffffffffffffffffffffffffff16610a7a6124e6565b73ffffffffffffffffffffffffffffffffffffffff161480610aa95750610aa881610aa36124e6565b6120db565b5b610ae8576040517f08c379a0000000000000000000000000000000000000000000000000000000008152600401610adf90613d71565b60405180910390fd5b610af283836124ee565b505050565b60606002806004811115610b0e57610b0d61386c565b5b600660009054906101000a900460ff166004811115610b3057610b2f61386c565b5b14610b70576040517f08c379a0000000000000000000000000000000000000000000000000000000008152600401610b6790613ddd565b60405180910390fd5b833373ffffffffffffffffffffffffffffffffffffffff16610b91826117a4565b73ffffffffffffffffffffffffffffffffffffffff1614610be7576040517f08c379a0000000000000000000000000000000000000000000000000000000008152600401610bde90613e49565b60405180910390fd5b60006002811115610bfb57610bfa61386c565b5b60078681548110610c0f57610c0e613e69565b5b906000526020600020906002020160010160009054906101000a900460ff166002811115610c4057610c3f61386c565b5b14610c80576040517f08c379a0000000000000000000000000000000000000000000000000000000008152600401610c7790613ee4565b60405180910390fd5b600160078681548110610c9657610c95613e69565b5b906000526020600020906002020160010160006101000a81548160ff02191690836002811115610cc957610cc861386c565b5b0217905550610cd7856125a7565b7fad735fea640d2273c159ca0571101d62d2fa19a0d10e2cd97fcc2c2f30410df13086610d02610908565b87604051610d139493929190613f04565b60405180910390a1839250505092915050565b610d37610d316124e6565b826126f5565b610d76576040517f08c379a0000000000000000000000000000000000000000000000000000000008152600401610d6d90613fc9565b60405180910390fd5b610d8183838361278a565b505050565b600c6020528060005260406000206000915090505481565b60006001806004811115610db557610db461386c565b5b600660009054906101000a900460ff166004811115610dd757610dd661386c565b5b14610e17576040517f08c379a0000000000000000000000000000000000000000000000000000000008152600401610e0e90613ddd565b60405180910390fd5b600280811115610e2a57610e2961386c565b5b60078481548110610e3e57610e3d613e69565b5b906000526020600020906002020160010160009054906101000a900460ff166002811115610e6f57610e6e61386c565b5b14610eaf576040517f08c379a0000000000000000000000000000000000000000000000000000000008152600401610ea690614035565b60405180910390fd5b600060078481548110610ec557610ec4613e69565b5b906000526020600020906002020160000154905080341115610f495760008134610eef9190614084565b905080600c60003373ffffffffffffffffffffffffffffffffffffffff1673ffffffffffffffffffffffffffffffffffffffff1681526020019081526020016000206000828254610f4091906140b8565b92505081905550505b6000606482600954610f5b91906140ec565b610f65919061415d565b905060008183610f759190614084565b90506000610f82876117a4565b905081600c60008373ffffffffffffffffffffffffffffffffffffffff1673ffffffffffffffffffffffffffffffffffffffff1681526020019081526020016000206000828254610fd391906140b8565b9250508190555082600c6000600b60029054906101000a900473ffffffffffffffffffffffffffffffffffffffff1673ffffffffffffffffffffffffffffffffffffffff1673ffffffffffffffffffffffffffffffffffffffff168152602001908152602001600020600082825461104b91906140b8565b925050819055507ff43c2b94d59192e43ff5461a2ec018bcf2178e26af43252b9bb00e937ab5c8433061107c610908565b338a60405161108e949392919061418e565b60405180910390a16110a1813389611723565b6000600788815481106110b7576110b6613e69565b5b906000526020600020906002020160010160006101000a81548160ff021916908360028111156110ea576110e961386c565b5b0217905550600195505050505050919050565b600b60029054906101000a900473ffffffffffffffffffffffffffffffffffffffff1673ffffffffffffffffffffffffffffffffffffffff163373ffffffffffffffffffffffffffffffffffffffff160361118d576040517f08c379a000000000000000000000000000000000000000000000000000000000815260040161118490614226565b60405180910390fd5b600b60029054906101000a900473ffffffffffffffffffffffffffffffffffffffff1673ffffffffffffffffffffffffffffffffffffffff163373ffffffffffffffffffffffffffffffffffffffff16146114b4576000600c60003373ffffffffffffffffffffffffffffffffffffffff1673ffffffffffffffffffffffffffffffffffffffff1681526020019081526020016000205490506003600481111561123a5761123961386c565b5b600660009054906101000a900460ff16600481111561125c5761125b61386c565b5b1480156112b9575060001515600d60003373ffffffffffffffffffffffffffffffffffffffff1673ffffffffffffffffffffffffffffffffffffffff16815260200190815260200160002060009054906101000a900460ff161515145b156112e2576008546112ca3361182a565b6112d491906140ec565b816112df91906140b8565b90505b60008111611325576040517f08c379a000000000000000000000000000000000000000000000000000000000815260040161131c906142b8565b60405180910390fd5b6000600c60003373ffffffffffffffffffffffffffffffffffffffff1673ffffffffffffffffffffffffffffffffffffffff168152602001908152602001600020819055506001600d60003373ffffffffffffffffffffffffffffffffffffffff1673ffffffffffffffffffffffffffffffffffffffff16815260200190815260200160002060006101000a81548160ff021916908315150217905550600033905060008173ffffffffffffffffffffffffffffffffffffffff16836040516113ed90614309565b60006040518083038185875af1925050503d806000811461142a576040519150601f19603f3d011682016040523d82523d6000602084013e61142f565b606091505b5050905080611473576040517f08c379a000000000000000000000000000000000000000000000000000000000815260040161146a9061436a565b60405180910390fd5b7f9fe2db218b58c00ab3556f2be44b2769b37978368c63313d82d78306568e477633846040516114a492919061438a565b60405180910390a1505050611721565b6004808111156114c7576114c661386c565b5b600660009054906101000a900460ff1660048111156114e9576114e861386c565b5b14611529576040517f08c379a0000000000000000000000000000000000000000000000000000000008152600401611520906143ff565b60405180910390fd5b6000600c6000600b60029054906101000a900473ffffffffffffffffffffffffffffffffffffffff1673ffffffffffffffffffffffffffffffffffffffff1673ffffffffffffffffffffffffffffffffffffffff168152602001908152602001600020549050600081116115d2576040517f08c379a00000000000000000000000000000000000000000000000000000000081526004016115c99061446b565b60405180910390fd5b6000600c6000600b60029054906101000a900473ffffffffffffffffffffffffffffffffffffffff1673ffffffffffffffffffffffffffffffffffffffff1673ffffffffffffffffffffffffffffffffffffffff1681526020019081526020016000208190555060003373ffffffffffffffffffffffffffffffffffffffff168260405161165f90614309565b60006040518083038185875af1925050503d806000811461169c576040519150601f19603f3d011682016040523d82523d6000602084013e6116a1565b606091505b50509050806116e5576040517f08c379a00000000000000000000000000000000000000000000000000000000081526004016116dc906144d7565b60405180910390fd5b7f5f0d69e5c0056ecc650fc0d2d916359037135dac3d5b5446d226dfdbe292482e338360405161171692919061438a565b60405180910390a150505b565b61173e83838360405180602001604052806000815250611f2b565b505050565b600d6020528060005260406000206000915054906101000a900460ff1681565b6007818154811061177357600080fd5b90600052602060002090600202016000915090508060000154908060010160009054906101000a900460ff16905082565b6000806117b083612a83565b9050600073ffffffffffffffffffffffffffffffffffffffff168173ffffffffffffffffffffffffffffffffffffffff1603611821576040517f08c379a000000000000000000000000000000000000000000000000000000000815260040161181890614543565b60405180910390fd5b80915050919050565b60008073ffffffffffffffffffffffffffffffffffffffff168273ffffffffffffffffffffffffffffffffffffffff160361189a576040517f08c379a0000000000000000000000000000000000000000000000000000000008152600401611891906145d5565b60405180910390fd5b600360008373ffffffffffffffffffffffffffffffffffffffff1673ffffffffffffffffffffffffffffffffffffffff168152602001908152602001600020549050919050565b60018060048111156118f6576118f561386c565b5b600660009054906101000a900460ff1660048111156119185761191761386c565b5b14611958576040517f08c379a000000000000000000000000000000000000000000000000000000000815260040161194f90613ddd565b60405180910390fd5b3373ffffffffffffffffffffffffffffffffffffffff16600e600084815260200190815260200160002060009054906101000a900473ffffffffffffffffffffffffffffffffffffffff1673ffffffffffffffffffffffffffffffffffffffff16036119f9576040517f08c379a00000000000000000000000000000000000000000000000000000000081526004016119f090614641565b60405180910390fd5b33600e600084815260200190815260200160002060006101000a81548173ffffffffffffffffffffffffffffffffffffffff021916908373ffffffffffffffffffffffffffffffffffffffff1602179055505050565b600b60029054906101000a900473ffffffffffffffffffffffffffffffffffffffff1681565b600e6020528060005260406000206000915054906101000a900473ffffffffffffffffffffffffffffffffffffffff1681565b606060018054611ab790613c3c565b80601f0160208091040260200160405190810160405280929190818152602001828054611ae390613c3c565b8015611b305780601f10611b0557610100808354040283529160200191611b30565b820191906000526020600020905b815481529060010190602001808311611b1357829003601f168201915b5050505050905090565b600b60019054906101000a900460ff1681565b6001806004811115611b6257611b6161386c565b5b600660009054906101000a900460ff166004811115611b8457611b8361386c565b5b14611bc4576040517f08c379a0000000000000000000000000000000000000000000000000000000008152600401611bbb90613ddd565b60405180910390fd5b3373ffffffffffffffffffffffffffffffffffffffff16611be4836117a4565b73ffffffffffffffffffffffffffffffffffffffff1614611c3a576040517f08c379a0000000000000000000000000000000000000000000000000000000008152600401611c31906146ad565b60405180910390fd5b611c45836001611c60565b611c4f83836109e0565b505050565b60095481565b60085481565b611c72611c6b6124e6565b8383612ac0565b5050565b60006001806004811115611c8d57611c8c61386c565b5b600660009054906101000a900460ff166004811115611caf57611cae61386c565b5b14611cef576040517f08c379a0000000000000000000000000000000000000000000000000000000008152600401611ce690613ddd565b60405180910390fd5b833373ffffffffffffffffffffffffffffffffffffffff16611d10826117a4565b73ffffffffffffffffffffffffffffffffffffffff1614611d66576040517f08c379a0000000000000000000000000000000000000000000000000000000008152600401611d5d90613e49565b60405180910390fd5b60016002811115611d7a57611d7961386c565b5b60078681548110611d8e57611d8d613e69565b5b906000526020600020906002020160010160009054906101000a900460ff166002811115611dbf57611dbe61386c565b5b03611dff576040517f08c379a0000000000000000000000000000000000000000000000000000000008152600401611df690614719565b60405180910390fd5b60011515600b60009054906101000a900460ff16151514611e55576040517f08c379a0000000000000000000000000000000000000000000000000000000008152600401611e4c90614785565b60405180910390fd5b600260078681548110611e6b57611e6a613e69565b5b906000526020600020906002020160010160006101000a81548160ff02191690836002811115611e9e57611e9d61386c565b5b02179055508360078681548110611eb857611eb7613e69565b5b9060005260206000209060020201600001819055507fec1a51878793b26371980da80139946e4a398461978717cbe8d07596dd3404b63386604051611efe92919061438a565b60405180910390a160019250505092915050565b600a5481565b600b60009054906101000a900460ff1681565b611f3c611f366124e6565b836126f5565b611f7b576040517f08c379a0000000000000000000000000000000000000000000000000000000008152600401611f7290613fc9565b60405180910390fd5b611f8784848484612c2c565b50505050565b600660009054906101000a900460ff1681565b6060611fab8261249b565b6000611fb5612c88565b90506000815111611fd55760405180602001604052806000815250612000565b80611fdf84612c9f565b604051602001611ff09291906147e1565b6040516020818303038152906040525b915050919050565b6000600b60029054906101000a900473ffffffffffffffffffffffffffffffffffffffff1673ffffffffffffffffffffffffffffffffffffffff163373ffffffffffffffffffffffffffffffffffffffff161461209a576040517f08c379a000000000000000000000000000000000000000000000000000000000815260040161209190614851565b60405180910390fd5b81600660006101000a81548160ff021916908360048111156120bf576120be61386c565b5b0217905550600660009054906101000a900460ff169050919050565b6000600560008473ffffffffffffffffffffffffffffffffffffffff1673ffffffffffffffffffffffffffffffffffffffff16815260200190815260200160002060008373ffffffffffffffffffffffffffffffffffffffff1673ffffffffffffffffffffffffffffffffffffffff16815260200190815260200160002060009054906101000a900460ff16905092915050565b600060018060048111156121865761218561386c565b5b600660009054906101000a900460ff1660048111156121a8576121a761386c565b5b146121e8576040517f08c379a00000000000000000000000000000000000000000000000000000000081526004016121df90613ddd565b60405180910390fd5b6000600a541161222d576040517f08c379a0000000000000000000000000000000000000000000000000000000008152600401612224906148bd565b60405180910390fd5b600854341015612272576040517f08c379a000000000000000000000000000000000000000000000000000000000815260040161226990614929565b60405180910390fd5b6007604051806040016040528060085481526020016000600281111561229b5761229a61386c565b5b81525090806001815401808255809150506001900390600052602060002090600202016000909190919091506000820151816000015560208201518160010160006101000a81548160ff021916908360028111156122fc576122fb61386c565b5b02179055505050600060016007805490506123179190614084565b9050600a600081548092919061232c90614949565b91905055506008543411156123a55760006008543461234b9190614084565b905080600c60003373ffffffffffffffffffffffffffffffffffffffff1673ffffffffffffffffffffffffffffffffffffffff168152602001908152602001600020600082825461239c91906140b8565b92505081905550505b600854600c6000600b60029054906101000a900473ffffffffffffffffffffffffffffffffffffffff1673ffffffffffffffffffffffffffffffffffffffff1673ffffffffffffffffffffffffffffffffffffffff168152602001908152602001600020600082825461241891906140b8565b925050819055506124293382612d6d565b809250505090565b60007f01ffc9a7000000000000000000000000000000000000000000000000000000007bffffffffffffffffffffffffffffffffffffffffffffffffffffffff1916827bffffffffffffffffffffffffffffffffffffffffffffffffffffffff1916149050919050565b6124a481612d8b565b6124e3576040517f08c379a00000000000000000000000000000000000000000000000000000000081526004016124da90614543565b60405180910390fd5b50565b600033905090565b816004600083815260200190815260200160002060006101000a81548173ffffffffffffffffffffffffffffffffffffffff021916908373ffffffffffffffffffffffffffffffffffffffff160217905550808273ffffffffffffffffffffffffffffffffffffffff16612561836117a4565b73ffffffffffffffffffffffffffffffffffffffff167f8c5be1e5ebec7d5bd14f71427d1e84f3dd0314c0f7b2291e5b200ac8c7c3b92560405160405180910390a45050565b60006125b2826117a4565b90506125c2816000846001612dcc565b6125cb826117a4565b90506004600083815260200190815260200160002060006101000a81549073ffffffffffffffffffffffffffffffffffffffff02191690556001600360008373ffffffffffffffffffffffffffffffffffffffff1673ffffffffffffffffffffffffffffffffffffffff168152602001908152602001600020600082825403925050819055506002600083815260200190815260200160002060006101000a81549073ffffffffffffffffffffffffffffffffffffffff021916905581600073ffffffffffffffffffffffffffffffffffffffff168273ffffffffffffffffffffffffffffffffffffffff167fddf252ad1be2c89b69c2b068fc378daa952ba7f163c4a11628f55a4df523b3ef60405160405180910390a46126f1816000846001612dd2565b5050565b600080612701836117a4565b90508073ffffffffffffffffffffffffffffffffffffffff168473ffffffffffffffffffffffffffffffffffffffff161480612743575061274281856120db565b5b8061278157508373ffffffffffffffffffffffffffffffffffffffff166127698461099a565b73ffffffffffffffffffffffffffffffffffffffff16145b91505092915050565b8273ffffffffffffffffffffffffffffffffffffffff166127aa826117a4565b73ffffffffffffffffffffffffffffffffffffffff1614612800576040517f08c379a00000000000000000000000000000000000000000000000000000000081526004016127f7906149e4565b60405180910390fd5b600073ffffffffffffffffffffffffffffffffffffffff168273ffffffffffffffffffffffffffffffffffffffff160361286f576040517f08c379a000000000000000000000000000000000000000000000000000000000815260040161286690614a76565b60405180910390fd5b61287c8383836001612dcc565b8273ffffffffffffffffffffffffffffffffffffffff1661289c826117a4565b73ffffffffffffffffffffffffffffffffffffffff16146128f2576040517f08c379a00000000000000000000000000000000000000000000000000000000081526004016128e9906149e4565b60405180910390fd5b6004600082815260200190815260200160002060006101000a81549073ffffffffffffffffffffffffffffffffffffffff02191690556001600360008573ffffffffffffffffffffffffffffffffffffffff1673ffffffffffffffffffffffffffffffffffffffff168152602001908152602001600020600082825403925050819055506001600360008473ffffffffffffffffffffffffffffffffffffffff1673ffffffffffffffffffffffffffffffffffffffff16815260200190815260200160002060008282540192505081905550816002600083815260200190815260200160002060006101000a81548173ffffffffffffffffffffffffffffffffffffffff021916908373ffffffffffffffffffffffffffffffffffffffff160217905550808273ffffffffffffffffffffffffffffffffffffffff168473ffffffffffffffffffffffffffffffffffffffff167fddf252ad1be2c89b69c2b068fc378daa952ba7f163c4a11628f55a4df523b3ef60405160405180910390a4612a7e8383836001612dd2565b505050565b60006002600083815260200190815260200160002060009054906101000a900473ffffffffffffffffffffffffffffffffffffffff169050919050565b8173ffffffffffffffffffffffffffffffffffffffff168373ffffffffffffffffffffffffffffffffffffffff1603612b2e576040517f08c379a0000000000000000000000000000000000000000000000000000000008152600401612b2590614ae2565b60405180910390fd5b80600560008573ffffffffffffffffffffffffffffffffffffffff1673ffffffffffffffffffffffffffffffffffffffff16815260200190815260200160002060008473ffffffffffffffffffffffffffffffffffffffff1673ffffffffffffffffffffffffffffffffffffffff16815260200190815260200160002060006101000a81548160ff0219169083151502179055508173ffffffffffffffffffffffffffffffffffffffff168373ffffffffffffffffffffffffffffffffffffffff167f17307eab39ab6107e8899845ad3d59bd9653f200f220920489ca2b5937696c3183604051612c1f9190613439565b60405180910390a3505050565b612c3784848461278a565b612c4384848484612dd8565b612c82576040517f08c379a0000000000000000000000000000000000000000000000000000000008152600401612c7990614b74565b60405180910390fd5b50505050565b606060405180602001604052806000815250905090565b606060006001612cae84612f97565b01905060008167ffffffffffffffff811115612ccd57612ccc61363b565b5b6040519080825280601f01601f191660200182016040528015612cff5781602001600182028036833780820191505090505b509050600082602001820190505b600115612d62578080600190039150507f3031323334353637383961626364656600000000000000000000000000000000600a86061a8153600a8581612d5657612d5561412e565b5b04945060008503612d0d575b819350505050919050565b612d878282604051806020016040528060008152506130ea565b5050565b60008073ffffffffffffffffffffffffffffffffffffffff16612dad83612a83565b73ffffffffffffffffffffffffffffffffffffffff1614159050919050565b50505050565b50505050565b6000612df98473ffffffffffffffffffffffffffffffffffffffff16613145565b15612f8a578373ffffffffffffffffffffffffffffffffffffffff1663150b7a02612e226124e6565b8786866040518563ffffffff167c0100000000000000000000000000000000000000000000000000000000028152600401612e609493929190614be9565b6020604051808303816000875af1925050508015612e9c57506040513d601f19601f82011682018060405250810190612e999190614c4a565b60015b612f1e573d8060008114612ecc576040519150601f19603f3d011682016040523d82523d6000602084013e612ed1565b606091505b506000815103612f16576040517f08c379a0000000000000000000000000000000000000000000000000000000008152600401612f0d90614b74565b60405180910390fd5b805181602001fd5b63150b7a027c0100000000000000000000000000000000000000000000000000000000027bffffffffffffffffffffffffffffffffffffffffffffffffffffffff1916817bffffffffffffffffffffffffffffffffffffffffffffffffffffffff191614915050612f8f565b600190505b949350505050565b600080600090507a184f03e93ff9f4daa797ed6e38ed64bf6a1f0100000000000000008310612ff5577a184f03e93ff9f4daa797ed6e38ed64bf6a1f0100000000000000008381612feb57612fea61412e565b5b0492506040810190505b6d04ee2d6d415b85acef81000000008310613032576d04ee2d6d415b85acef810000000083816130285761302761412e565b5b0492506020810190505b662386f26fc10000831061306157662386f26fc1000083816130575761305661412e565b5b0492506010810190505b6305f5e100831061308a576305f5e10083816130805761307f61412e565b5b0492506008810190505b61271083106130af5761271083816130a5576130a461412e565b5b0492506004810190505b606483106130d257606483816130c8576130c761412e565b5b0492506002810190505b600a83106130e1576001810190505b80915050919050565b6130f48383613168565b6131016000848484612dd8565b613140576040517f08c379a000000000000000000000000000000000000000000000000000000000815260040161313790614b74565b60405180910390fd5b505050565b6000808273ffffffffffffffffffffffffffffffffffffffff163b119050919050565b600073ffffffffffffffffffffffffffffffffffffffff168273ffffffffffffffffffffffffffffffffffffffff16036131d7576040517f08c379a00000000000000000000000000000000000000000000000000000000081526004016131ce90614cc3565b60405180910390fd5b6131e081612d8b565b15613220576040517f08c379a000000000000000000000000000000000000000000000000000000000815260040161321790614d2f565b60405180910390fd5b61322e600083836001612dcc565b61323781612d8b565b15613277576040517f08c379a000000000000000000000000000000000000000000000000000000000815260040161326e90614d2f565b60405180910390fd5b6001600360008473ffffffffffffffffffffffffffffffffffffffff1673ffffffffffffffffffffffffffffffffffffffff16815260200190815260200160002060008282540192505081905550816002600083815260200190815260200160002060006101000a81548173ffffffffffffffffffffffffffffffffffffffff021916908373ffffffffffffffffffffffffffffffffffffffff160217905550808273ffffffffffffffffffffffffffffffffffffffff16600073ffffffffffffffffffffffffffffffffffffffff167fddf252ad1be2c89b69c2b068fc378daa952ba7f163c4a11628f55a4df523b3ef60405160405180910390a4613381600083836001612dd2565b5050565b6000604051905090565b600080fd5b600080fd5b60007fffffffff0000000000000000000000000000000000000000000000000000000082169050919050565b6133ce81613399565b81146133d957600080fd5b50565b6000813590506133eb816133c5565b92915050565b6000602082840312156134075761340661338f565b5b6000613415848285016133dc565b91505092915050565b60008115159050919050565b6134338161341e565b82525050565b600060208201905061344e600083018461342a565b92915050565b600081519050919050565b600082825260208201905092915050565b60005b8381101561348e578082015181840152602081019050613473565b60008484015250505050565b6000601f19601f8301169050919050565b60006134b682613454565b6134c0818561345f565b93506134d0818560208601613470565b6134d98161349a565b840191505092915050565b600060208201905081810360008301526134fe81846134ab565b905092915050565b6000819050919050565b61351981613506565b811461352457600080fd5b50565b60008135905061353681613510565b92915050565b6000602082840312156135525761355161338f565b5b600061356084828501613527565b91505092915050565b600073ffffffffffffffffffffffffffffffffffffffff82169050919050565b600061359482613569565b9050919050565b6135a481613589565b82525050565b60006020820190506135bf600083018461359b565b92915050565b6135ce81613589565b81146135d957600080fd5b50565b6000813590506135eb816135c5565b92915050565b600080604083850312156136085761360761338f565b5b6000613616858286016135dc565b925050602061362785828601613527565b9150509250929050565b600080fd5b600080fd5b7f4e487b7100000000000000000000000000000000000000000000000000000000600052604160045260246000fd5b6136738261349a565b810181811067ffffffffffffffff821117156136925761369161363b565b5b80604052505050565b60006136a5613385565b90506136b1828261366a565b919050565b600067ffffffffffffffff8211156136d1576136d061363b565b5b6136da8261349a565b9050602081019050919050565b82818337600083830152505050565b6000613709613704846136b6565b61369b565b90508281526020810184848401111561372557613724613636565b5b6137308482856136e7565b509392505050565b600082601f83011261374d5761374c613631565b5b813561375d8482602086016136f6565b91505092915050565b6000806040838503121561377d5761377c61338f565b5b600061378b85828601613527565b925050602083013567ffffffffffffffff8111156137ac576137ab613394565b5b6137b885828601613738565b9150509250929050565b6000806000606084860312156137db576137da61338f565b5b60006137e9868287016135dc565b93505060206137fa868287016135dc565b925050604061380b86828701613527565b9150509250925092565b60006020828403121561382b5761382a61338f565b5b6000613839848285016135dc565b91505092915050565b61384b81613506565b82525050565b60006020820190506138666000830184613842565b92915050565b7f4e487b7100000000000000000000000000000000000000000000000000000000600052602160045260246000fd5b600381106138ac576138ab61386c565b5b50565b60008190506138bd8261389b565b919050565b60006138cd826138af565b9050919050565b6138dd816138c2565b82525050565b60006040820190506138f86000830185613842565b61390560208301846138d4565b9392505050565b600061391782613569565b9050919050565b6139278161390c565b82525050565b6000602082019050613942600083018461391e565b92915050565b6139518161341e565b811461395c57600080fd5b50565b60008135905061396e81613948565b92915050565b6000806040838503121561398b5761398a61338f565b5b6000613999858286016135dc565b92505060206139aa8582860161395f565b9150509250929050565b600080604083850312156139cb576139ca61338f565b5b60006139d985828601613527565b92505060206139ea85828601613527565b9150509250929050565b600067ffffffffffffffff821115613a0f57613a0e61363b565b5b613a188261349a565b9050602081019050919050565b6000613a38613a33846139f4565b61369b565b905082815260208101848484011115613a5457613a53613636565b5b613a5f8482856136e7565b509392505050565b600082601f830112613a7c57613a7b613631565b5b8135613a8c848260208601613a25565b91505092915050565b60008060008060808587031215613aaf57613aae61338f565b5b6000613abd878288016135dc565b9450506020613ace878288016135dc565b9350506040613adf87828801613527565b925050606085013567ffffffffffffffff811115613b0057613aff613394565b5b613b0c87828801613a67565b91505092959194509250565b60058110613b2957613b2861386c565b5b50565b6000819050613b3a82613b18565b919050565b6000613b4a82613b2c565b9050919050565b613b5a81613b3f565b82525050565b6000602082019050613b756000830184613b51565b92915050565b60058110613b8857600080fd5b50565b600081359050613b9a81613b7b565b92915050565b600060208284031215613bb657613bb561338f565b5b6000613bc484828501613b8b565b91505092915050565b60008060408385031215613be457613be361338f565b5b6000613bf2858286016135dc565b9250506020613c03858286016135dc565b9150509250929050565b7f4e487b7100000000000000000000000000000000000000000000000000000000600052602260045260246000fd5b60006002820490506001821680613c5457607f821691505b602082108103613c6757613c66613c0d565b5b50919050565b7f4552433732313a20617070726f76616c20746f2063757272656e74206f776e6560008201527f7200000000000000000000000000000000000000000000000000000000000000602082015250565b6000613cc960218361345f565b9150613cd482613c6d565b604082019050919050565b60006020820190508181036000830152613cf881613cbc565b9050919050565b7f4552433732313a20617070726f76652063616c6c6572206973206e6f7420746f60008201527f6b656e206f776e6572206f7220617070726f76656420666f7220616c6c000000602082015250565b6000613d5b603d8361345f565b9150613d6682613cff565b604082019050919050565b60006020820190508181036000830152613d8a81613d4e565b9050919050565b7f696e636f72726563742073746167650000000000000000000000000000000000600082015250565b6000613dc7600f8361345f565b9150613dd282613d91565b602082019050919050565b60006020820190508181036000830152613df681613dba565b9050919050565b7f55736572206d757374206f776e207469636b6574000000000000000000000000600082015250565b6000613e3360148361345f565b9150613e3e82613dfd565b602082019050919050565b60006020820190508181036000830152613e6281613e26565b9050919050565b7f4e487b7100000000000000000000000000000000000000000000000000000000600052603260045260246000fd5b7f6e6f2076616c6964207469636b657420666f7220757365720000000000000000600082015250565b6000613ece60188361345f565b9150613ed982613e98565b602082019050919050565b60006020820190508181036000830152613efd81613ec1565b9050919050565b6000608082019050613f19600083018761359b565b613f266020830186613842565b8181036040830152613f3881856134ab565b90508181036060830152613f4c81846134ab565b905095945050505050565b7f4552433732313a2063616c6c6572206973206e6f7420746f6b656e206f776e6560008201527f72206f7220617070726f76656400000000000000000000000000000000000000602082015250565b6000613fb3602d8361345f565b9150613fbe82613f57565b604082019050919050565b60006020820190508181036000830152613fe281613fa6565b9050919050565b7f7469636b657420756e617661696c61626c650000000000000000000000000000600082015250565b600061401f60128361345f565b915061402a82613fe9565b602082019050919050565b6000602082019050818103600083015261404e81614012565b9050919050565b7f4e487b7100000000000000000000000000000000000000000000000000000000600052601160045260246000fd5b600061408f82613506565b915061409a83613506565b92508282039050818111156140b2576140b1614055565b5b92915050565b60006140c382613506565b91506140ce83613506565b92508282019050808211156140e6576140e5614055565b5b92915050565b60006140f782613506565b915061410283613506565b925082820261411081613506565b9150828204841483151761412757614126614055565b5b5092915050565b7f4e487b7100000000000000000000000000000000000000000000000000000000600052601260045260246000fd5b600061416882613506565b915061417383613506565b9250826141835761418261412e565b5b828204905092915050565b60006080820190506141a3600083018761359b565b81810360208301526141b581866134ab565b90506141c4604083018561359b565b6141d16060830184613842565b95945050505050565b7f43616e206e6f7420626520657865637574656420627920746865206f776e6572600082015250565b600061421060208361345f565b915061421b826141da565b602082019050919050565b6000602082019050818103600083015261423f81614203565b9050919050565b7f5573657220646f6573206e6f742068617665206d6f6e657920746f207769746860008201527f6472617700000000000000000000000000000000000000000000000000000000602082015250565b60006142a260248361345f565b91506142ad82614246565b604082019050919050565b600060208201905081810360008301526142d181614295565b9050919050565b600081905092915050565b50565b60006142f36000836142d8565b91506142fe826142e3565b600082019050919050565b6000614314826142e6565b9150819050919050565b7f4661696c656420746f2073656e6420657468657220746f207573657200000000600082015250565b6000614354601c8361345f565b915061435f8261431e565b602082019050919050565b6000602082019050818103600083015261438381614347565b9050919050565b600060408201905061439f600083018561359b565b6143ac6020830184613842565b9392505050565b7f4576656e74206e6f74206f766572207965740000000000000000000000000000600082015250565b60006143e960128361345f565b91506143f4826143b3565b602082019050919050565b60006020820190508181036000830152614418816143dc565b9050919050565b7f4e6f206d6f6e657920746f207769746864726177000000000000000000000000600082015250565b600061445560148361345f565b91506144608261441f565b602082019050919050565b6000602082019050818103600083015261448481614448565b9050919050565b7f4661696c656420746f2073656e6420657468657220746f206f776e6572000000600082015250565b60006144c1601d8361345f565b91506144cc8261448b565b602082019050919050565b600060208201905081810360008301526144f0816144b4565b9050919050565b7f4552433732313a20696e76616c696420746f6b656e2049440000000000000000600082015250565b600061452d60188361345f565b9150614538826144f7565b602082019050919050565b6000602082019050818103600083015261455c81614520565b9050919050565b7f4552433732313a2061646472657373207a65726f206973206e6f74206120766160008201527f6c6964206f776e65720000000000000000000000000000000000000000000000602082015250565b60006145bf60298361345f565b91506145ca82614563565b604082019050919050565b600060208201905081810360008301526145ee816145b2565b9050919050565b7f616c726561647920726567697374657265640000000000000000000000000000600082015250565b600061462b60128361345f565b9150614636826145f5565b602082019050919050565b6000602082019050818103600083015261465a8161461e565b9050919050565b7f6e6f207065726d697373696f6e00000000000000000000000000000000000000600082015250565b6000614697600d8361345f565b91506146a282614661565b602082019050919050565b600060208201905081810360008301526146c68161468a565b9050919050565b7f7469636b65742075736564000000000000000000000000000000000000000000600082015250565b6000614703600b8361345f565b915061470e826146cd565b602082019050919050565b60006020820190508181036000830152614732816146f6565b9050919050565b7f6e6f207469636b657420726573616c6500000000000000000000000000000000600082015250565b600061476f60108361345f565b915061477a82614739565b602082019050919050565b6000602082019050818103600083015261479e81614762565b9050919050565b600081905092915050565b60006147bb82613454565b6147c581856147a5565b93506147d5818560208601613470565b80840191505092915050565b60006147ed82856147b0565b91506147f982846147b0565b91508190509392505050565b7f6f6e6c79206f776e657200000000000000000000000000000000000000000000600082015250565b600061483b600a8361345f565b915061484682614805565b602082019050919050565b6000602082019050818103600083015261486a8161482e565b9050919050565b7f6e6f20746978206c656674000000000000000000000000000000000000000000600082015250565b60006148a7600b8361345f565b91506148b282614871565b602082019050919050565b600060208201905081810360008301526148d68161489a565b9050919050565b7f496e73756666696369656e742066756e64730000000000000000000000000000600082015250565b600061491360128361345f565b915061491e826148dd565b602082019050919050565b6000602082019050818103600083015261494281614906565b9050919050565b600061495482613506565b91506000820361496757614966614055565b5b600182039050919050565b7f4552433732313a207472616e736665722066726f6d20696e636f72726563742060008201527f6f776e6572000000000000000000000000000000000000000000000000000000602082015250565b60006149ce60258361345f565b91506149d982614972565b604082019050919050565b600060208201905081810360008301526149fd816149c1565b9050919050565b7f4552433732313a207472616e7366657220746f20746865207a65726f2061646460008201527f7265737300000000000000000000000000000000000000000000000000000000602082015250565b6000614a6060248361345f565b9150614a6b82614a04565b604082019050919050565b60006020820190508181036000830152614a8f81614a53565b9050919050565b7f4552433732313a20617070726f766520746f2063616c6c657200000000000000600082015250565b6000614acc60198361345f565b9150614ad782614a96565b602082019050919050565b60006020820190508181036000830152614afb81614abf565b9050919050565b7f4552433732313a207472616e7366657220746f206e6f6e20455243373231526560008201527f63656976657220696d706c656d656e7465720000000000000000000000000000602082015250565b6000614b5e60328361345f565b9150614b6982614b02565b604082019050919050565b60006020820190508181036000830152614b8d81614b51565b9050919050565b600081519050919050565b600082825260208201905092915050565b6000614bbb82614b94565b614bc58185614b9f565b9350614bd5818560208601613470565b614bde8161349a565b840191505092915050565b6000608082019050614bfe600083018761359b565b614c0b602083018661359b565b614c186040830185613842565b8181036060830152614c2a8184614bb0565b905095945050505050565b600081519050614c44816133c5565b92915050565b600060208284031215614c6057614c5f61338f565b5b6000614c6e84828501614c35565b91505092915050565b7f4552433732313a206d696e7420746f20746865207a65726f2061646472657373600082015250565b6000614cad60208361345f565b9150614cb882614c77565b602082019050919050565b60006020820190508181036000830152614cdc81614ca0565b9050919050565b7f4552433732313a20746f6b656e20616c7265616479206d696e74656400000000600082015250565b6000614d19601c8361345f565b9150614d2482614ce3565b602082019050919050565b60006020820190508181036000830152614d4881614d0c565b905091905056fea2646970667358221220521a204e1e09ff4c15a07a7209556a32520c3026f0b7975bc6e8c4e4e571968b64736f6c634300081b0033a26469706673582212206ebf905a93fabc507c3a41a5fe55c14e1ec258ee9397456d1c9c4179cd272bba64736f6c634300081b0033",
  "immutableReferences": {},
  "source": "// SPDX-License-Identifier: MIT\r\npragma solidity >=0.7.0 <0.9.0;\r\nimport \"@openzeppelin/contracts/token/ERC721/ERC721.sol\";\r\n\r\n/// @title Factory Contract to create events\r\ncontract EventCreator2 {\r\n\r\n    // EVENTS\r\n    event CreateEvent(address _creator, address _event);\r\n\r\n    /**\r\n     * @notice Creates Events\r\n     * @param _numTickets Number of tickets \r\n     * @param _price Price per ticket\r\n     * @param _canBeResold Are tickets allowed to be resold\r\n     * @param _royaltyPercent Royalty percentage accrued by organizers on reselling of ticket\r\n     * @param _eventName Name of the Ticket NFT\r\n     * @param _eventSymbol Symbol for the Ticket NFT Token\r\n     */\r\n    function createEvent(uint _numTickets, uint _price, bool _canBeResold, uint _royaltyPercent,\r\n            string memory _eventName, string memory _eventSymbol) external returns(Event newEvent) {\r\n\r\n        // Create a new Event smart contract\r\n        Event e = new Event(msg.sender, _numTickets, _price, _canBeResold, _royaltyPercent, _eventName, _eventSymbol);\r\n        \r\n        // Store/return event address\r\n        emit CreateEvent(msg.sender, address(e));\r\n        return e;\r\n    }\r\n}\r\n\r\n/// @title Contract to mint tickets of an event\r\ncontract Event is ERC721 {\r\n    /// Control Event Status at a granular level\r\n    enum Stages { Prep, Active, CheckinOpen, Cancelled, Closed }\r\n    // Stages public stage = Stages.Prep;\r\n    Stages public stage;\r\n    /// Control Ticket Status at a granular level\r\n    /// Valid - Ticket is Valid\r\n    /// Used - Ticket is used\r\n    /// AvailableForSale - Ticket is allowed to be sold to someone\r\n    enum TicketStatus { Valid, Used, AvailableForSale }\r\n    \r\n    // Ticket struct \r\n    struct Ticket {\r\n        uint resalePrice;\r\n        TicketStatus status;\r\n    }\r\n    \r\n    // array to store tickets, index will be ticketID\r\n    Ticket[] public tickets;\r\n    \r\n    // ticket original price\r\n    uint public price;\r\n    \r\n    // Percent royalty event creator receives from ticket resales\r\n    uint public royaltyPercent;\r\n    \r\n    // number of tickets left to sell\r\n    uint256 public numTicketsLeft;\r\n    \r\n    // if ticket can be resold in the second market\r\n    bool public canBeResold;\r\n    \r\n    // if event is cancelled\r\n    bool public isCancelled;\r\n    \r\n    // orginizer of event\r\n    address payable public owner;\r\n    \r\n    // to store the balances for buyers and organizers\r\n    mapping(address => uint) public balances;\r\n    mapping(address => bool) public isUserRefund;\r\n    mapping(uint => address) public registeredBuyers;\r\n\r\n    // EVENTS\r\n    event CreateTicket(address contractAddress, string eventName, address buyer, uint ticketID);\r\n    event WithdrawMoney(address receiver, uint money);\r\n    event OwnerWithdrawMoney(address owner, uint money);\r\n    event TicketForSale(address seller, uint ticketID);\r\n    event TicketSold(address contractAddress, string eventName, address buyer, uint ticketID);\r\n    event TicketUsed(address contractAddress, uint ticketID, string eventName, string sQRCodeKey);\r\n\r\n    // Creates a new Event Contract\r\n    constructor(address _owner, uint _numTickets, uint _price, bool _canBeResold, uint _royaltyPercent,\r\n            string memory _eventName, string memory _eventSymbol) ERC721(_eventName, _eventSymbol) {    \r\n        // Check valid constructor arguments\r\n        require(_royaltyPercent >= 0 && _royaltyPercent <= 100, \"royalty percent\");\r\n        // Number of tickets must be greater than 0\r\n        require(_numTickets > 0, \"number of tickets\");\r\n        // EventName, EventSymbol cannot be empty string\r\n        bytes memory eventNameBytes = bytes(_eventName);\r\n        bytes memory eventSymbolBytes = bytes(_eventSymbol);\r\n        require(eventNameBytes.length != 0, \"event name\");\r\n        require(eventSymbolBytes.length != 0, \"event symbol\");\r\n        \r\n        owner = payable(_owner);\r\n        numTicketsLeft = _numTickets;\r\n        price = _price;\r\n        canBeResold = _canBeResold;\r\n        royaltyPercent = _royaltyPercent;\r\n        stage = Stages.Prep;\r\n    }\r\n\r\n    /**\r\n     * @notice Buy tickets\r\n     * @dev Checks: State is Active, has enough money\r\n     */\r\n    function buyTicket() public payable requiredStage(Stages.Active)\r\n                                            returns (uint){\r\n        require(numTicketsLeft > 0, \"no tix left\");\r\n        require(msg.value >= price, \"Insufficient funds\");\r\n        \r\n        // Create Ticket t, Store t in tickets array\r\n        tickets.push(Ticket(price, TicketStatus.Valid));\r\n        uint ticketID = tickets.length - 1;\r\n        numTicketsLeft--;\r\n        \r\n        // store overpaid in balances\r\n        if (msg.value > price) {\r\n            uint amount = msg.value - price;\r\n            balances[msg.sender] += amount;\r\n        }\r\n        balances[owner] += price;\r\n        \r\n        // Mint NFT\r\n        _safeMint(msg.sender, ticketID);\r\n        \r\n        return ticketID;\r\n    }\r\n\r\n    /**\r\n     * @notice Mark ticket as used\r\n     * @dev Only a valid buyer can mark ticket as used\r\n     * @param ticketID ticket ID of ticket\r\n     */\r\n    function buyTicketFromUser(uint ticketID) public payable requiredStage(Stages.Active) returns (bool) {\r\n        // Check if ticket is available for sale\r\n        require(tickets[ticketID].status == TicketStatus.AvailableForSale, \"ticket unavailable\");\r\n\r\n        // calc amount to pay after royalty\r\n        uint ticketPrice = tickets[ticketID].resalePrice;\r\n        // store overpaid in balances\r\n        if (msg.value > ticketPrice) {\r\n            uint amount = msg.value - ticketPrice;\r\n            balances[msg.sender] += amount;\r\n        }\r\n        uint royalty = (royaltyPercent * ticketPrice) / 100;\r\n        uint priceToPay = ticketPrice - royalty;\r\n\r\n        address payable seller = payable(ownerOf(ticketID));\r\n        // store balances for seller and owner to withdraw later\r\n        balances[seller] += priceToPay;\r\n        balances[owner] += royalty;\r\n        \r\n        emit TicketSold(address(this), name(), msg.sender, ticketID);\r\n        safeTransferFrom(seller, msg.sender, ticketID);\r\n\r\n        tickets[ticketID].status = TicketStatus.Valid;\r\n\r\n        return true;\r\n    }\r\n    \r\n    /**\r\n     * @notice Mark ticket as used\r\n     * @dev Only a valid buyer can mark ticket as used\r\n     * @param ticketID ticket ID of ticket\r\n     * @param sQRCodeKey QR Code key sent by the app \r\n     */\r\n    function setTicketToUsed(uint ticketID, string memory sQRCodeKey) public requiredStage(Stages.CheckinOpen)\r\n                                                                    ownsTicket(ticketID) returns (string memory){\r\n\t\t// Validate that user has a ticket they own and it is valid\r\n        require(tickets[ticketID].status == TicketStatus.Valid, \"no valid ticket for user\");\r\n    \r\n        // Ticket is valid so mark it as used\r\n        tickets[ticketID].status = TicketStatus.Used;\r\n\r\n        // Burn the Token\r\n        _burn(ticketID); \r\n        \r\n        // Raise event which Gate Management system can consume then\r\n        emit TicketUsed(address(this), ticketID, name(), sQRCodeKey);\r\n        \r\n        return sQRCodeKey;\r\n\t}\r\n\r\n    /**\r\n     * @notice Mark ticket as used\r\n     * @dev Only a valid buyer can mark ticket as used\r\n     * @param ticketID ticket ID of ticket\r\n     * @param resalePrice resale price for ticket\r\n     */\r\n    function setTicketForSale(uint ticketID, uint resalePrice) public requiredStage(Stages.Active) ownsTicket(ticketID) returns(bool) {\r\n\t\t// Validate that user has a ticket they own and it is valid\r\n        require(tickets[ticketID].status != TicketStatus.Used, \"ticket used\");\r\n        require(canBeResold == true, \"no ticket resale\");\r\n        \r\n        // Ticket is valid so mark it for sale\r\n        tickets[ticketID].status = TicketStatus.AvailableForSale;\r\n        tickets[ticketID].resalePrice = resalePrice;\r\n        \r\n        // Raise event which Gate Management system can consume then\r\n        emit TicketForSale(msg.sender, ticketID);\r\n        \r\n        //return ticketID;\r\n        return true;\r\n\t}\r\n\r\n    /**\r\n     * @notice User to withdraw money \r\n     * @dev User can withdraw money if event cancelled or overpaid for ticket\r\n     */\r\n    function withdraw() public {\r\n        require(msg.sender != owner, \"Can not be executed by the owner\");\r\n        if (msg.sender != owner) {\r\n            // Amount to send to user\r\n            uint sendToUser = balances[msg.sender];\r\n            \r\n            // If event cancelled, send user the amount they overpaid for ticket + ticket price refund\r\n            if (stage == Stages.Cancelled && isUserRefund[msg.sender] == false ) {\r\n                sendToUser += balanceOf(msg.sender) * price;\r\n            }\r\n\r\n            // Cannot withdraw if no money to withdraw\r\n            require(sendToUser > 0, \"User does not have money to withdraw\");\r\n            \r\n            // Update balance before transfering money\r\n            balances[msg.sender] = 0;\r\n            isUserRefund[msg.sender] = true;\r\n\r\n            // Transfer money to user\r\n            address payable receiver = payable(msg.sender);\r\n            // Call will forwards all available gas\r\n            (bool sent, ) = receiver.call{value:sendToUser}(\"\");\r\n            // Failure condition of send will emit this error\r\n            require(sent, \"Failed to send ether to user\");\r\n            emit WithdrawMoney(msg.sender, sendToUser);\r\n        } else {\r\n            // Owner\r\n            require(stage == Stages.Closed, \"Event not over yet\");\r\n            uint ownerBalance = balances[owner];\r\n            require(ownerBalance > 0, \"No money to withdraw\");\r\n            \r\n            // Update balance before transfering money\r\n            balances[owner] = 0;\r\n\r\n            // Call will forwards all available gas\r\n            (bool sent, ) = msg.sender.call{value:ownerBalance}(\"\");\r\n            // Failure condition if cannot transfer\r\n            require(sent, \"Failed to send ether to owner\");\r\n            emit OwnerWithdrawMoney(msg.sender, ownerBalance);\r\n        }\r\n        \r\n    }\r\n\r\n    /**\r\n     * @dev approve a buyer to buy ticket of another user\r\n     */\r\n    function approveAsBuyer(address buyer, uint ticketID) public requiredStage(Stages.Active){\r\n        require(ownerOf(ticketID) == msg.sender, \"no permission\");\r\n        setApprovalForAll(buyer, bool(true));\r\n        approve(buyer, ticketID);\r\n    }\r\n\r\n    /**\r\n     * @dev register as buyer\r\n     */\r\n    function registerAsBuyer(uint ticketID) public requiredStage(Stages.Active){\r\n        require(registeredBuyers[ticketID] != msg.sender, \"already registered\");\r\n\r\n        registeredBuyers[ticketID] = msg.sender;\r\n    }\r\n    \r\n    /** \r\n     * @notice Change Status\r\n     * @dev Only owner can change state\r\n     * @param _stage Stages as set in enum Stages\r\n     */\r\n    function setStage(Stages _stage) public onlyOwner returns (Stages) {\r\n        stage = _stage;\r\n        return stage;\r\n    }\r\n\r\n\r\n    // MODIFIERS\r\n    // Only owner\r\n    modifier onlyOwner() {\r\n        require(msg.sender == owner, \"only owner\");\r\n        _;\r\n    }\r\n\r\n    // Requires stage to be _stage\r\n    modifier requiredStage(Stages _stage) {\r\n        require(stage == _stage, \"incorrect stage\");\r\n        _;\r\n    }\r\n\r\n    // Check if user is ticket owner\r\n    modifier ownsTicket(uint ticketID) {\r\n        require(ownerOf(ticketID) == msg.sender, \"User must own ticket\");\r\n        _;\r\n    }\r\n\r\n}\r\n\r\n",
  "sourcePath": "C:\\Users\\offic\\OneDrive\\Desktop\\EDI\\demo\\NFT-Event-Ticketing\\src\\contracts\\Event.sol",
  "compiler": {
    "name": "solc",
    "version": "0.8.27+commit.40a35a09.Emscripten.clang"
  },
  "schemaVersion": "3.4.16",
  "updatedAt": "2024-10-01T08:33:27.972Z",
  "devdoc": {
    "kind": "dev",
    "methods": {
      "createEvent(uint256,uint256,bool,uint256,string,string)": {
        "params": {
          "_canBeResold": "Are tickets allowed to be resold",
          "_eventName": "Name of the Ticket NFT",
          "_eventSymbol": "Symbol for the Ticket NFT Token",
          "_numTickets": "Number of tickets ",
          "_price": "Price per ticket",
          "_royaltyPercent": "Royalty percentage accrued by organizers on reselling of ticket"
        }
      }
    },
    "title": "Factory Contract to create events",
    "version": 1
  },
  "userdoc": {
    "kind": "user",
    "methods": {
      "createEvent(uint256,uint256,bool,uint256,string,string)": {
        "notice": "Creates Events"
      }
    },
    "version": 1
  }
}